:100000000C945E000C9469050C9496050C94860083
:100010000C9486000C9486000C9486000C94860048
:100020000C9486000C9486000C9486000C94860038
:100030000C9486000C9486000C9486000C94860028
:100040000C94C3050C9486000C9486000C948600D6
:100050000C9486000C9486000C9486000C94860008
:100060000C9486000C948600000000080002010039
:100070000003040700000000000000000102040863
:100080001020408001020408102001020408102002
:10009000040404040404040402020202020203032E
:1000A0000303030300000000250028002B000000CC
:1000B0000000240027002A00CC02D40211241FBE15
:1000C000CFEFD8E0DEBFCDBF11E0A0E0B1E0E4E4C7
:1000D000F4E102C005900D92A231B107D9F721E0F9
:1000E000A2E1B1E001C01D92A434B207E1F710E033
:1000F000CAEBD0E004C02297FE010E94E308C83B8F
:10010000D107C9F70E9438070C94150A0C94000017
:1001100080911C0190911D01019690931D01809387
:100120001C010895EF92FF920F93CF93DF9380917C
:1001300012019091130101968330910529F090935B
:1001400013018093120104C0109213011092120146
:10015000E12CF12C80911201909113018E159F05D5
:1001600004F1C0E0D0E000E02FEF40E0BE018EE1FE
:1001700091E00E9483048EE191E00E9467036AE0AF
:1001800070E080E090E00E943C068EE191E00E94E9
:1001900067032196CB31D10531F78FEFE81AF80AC2
:1001A000D9CFDF91CF910F91FF90EF90089542E06A
:1001B00050E068E870E080E00E94490543E050E0CC
:1001C00062E970E081E00E9449050E940D0660939B
:1001D00018017093190180931A0190931B018EE10D
:1001E00091E00E94EC028EE191E00E94670361E0E1
:1001F00082E00C940107CF92DF92EF92FF920F936F
:100200001F93CF93DF93C0E0D0E0C12CD12C88ECBA
:10021000E82E82E4F82E09ED27E843E2BE018EE1E4
:1002200091E00E94830427E843E2BE01665F7F4FAE
:100230008EE191E00E94830427E843E2BE016C5EF8
:100240007F4F8EE191E00E94830427E843E2BE01E4
:100250006A5071098EE191E00E94830427E843E22D
:10026000BE01645171098EE191E00E94830400E0B7
:1002700020E040E0BE01635071098EE191E00E94F0
:10028000830420E040E0BE016F5E7F4F8EE191E08D
:100290000E94830420E040E0BE01655E7F4F8EE156
:1002A00091E00E94830420E040E0BE016D5071099E
:1002B0008EE191E00E94830420E040E0BE0167519E
:1002C00071098EE191E00E9483048EE191E00E9429
:1002D00067030E940D0600911801109119012091E9
:1002E0001A0130911B0108511C4F2F4F3F4F061729
:1002F00017072807390708F051C060911C01709159
:100300001D0180E090E00E94DC0720910E013091F9
:100310000F0140911001509111010E946A089B0148
:10032000AC016093140170931501809316019093B2
:10033000170180911C0190911D01892BC9F06091DA
:100340000A0170910B0180910C0190910D010E94A6
:10035000480720E030E04AE754E40E946A086093CE
:10036000060170930701809308019093090108C06A
:10037000C0920601D0920701E0920801F0920901B3
:1003800010921D0110921C010E940D06609318012D
:100390007093190180931A0190931B0160910601DB
:1003A0007091070180910801909109010E94B007A6
:1003B0000E943C062196CE31D10509F02CCFDF9169
:1003C000CF911F910F91FF90EF90DF90CF90089504
:1003D000853540F4982F990F980F692F609540E06C
:1003E000892F12C08A3A48F49BEA980F892F880F08
:1003F000890F482F60E0809507C08A5A682F660FE2
:10040000680F462F409580E00C943C050F931F9396
:10041000CF93DF93C1E0D0E08EE191E00E944505EB
:100420008C179D0780F08EE191E00E944505BC018C
:100430006C1B7D0B00E020E040E08EE191E00E942B
:1004400083042196E9CF8EE191E00E94670300E0EA
:1004500010E0C0E0D0E0802F0E94E8019B01AC01D9
:10046000BE018EE191E00E94D7042396CB31D105E5
:1004700091F78EE191E00E94670364E170E080E013
:1004800090E00E943C060F5F1F4F011581E01807A6
:1004900001F7DF91CF911F910F9108958F929F9255
:1004A000AF92BF92CF92DF92EF92FF920F931F9382
:1004B000CF93DF9300D000D0CDB7DEB700E010E0DF
:1004C000C82ED12CE12CF12CA12CBB24B394882470
:1004D0008394912C8EE191E00E9445058815990541
:1004E00030F18EE191E00E944505BC01C5010E94FA
:1004F000CD08862F800F0E94E8019B01AC018EE1A0
:1005000091E029833A834B835C830E944505BC01BB
:100510006819790929813A814B815C818EE191E0EA
:100520000E94D7048FEF881A980AB394D3CF8EE134
:1005300091E00E946703C701B6010E943C060F5F6D
:100540001F4F0115F5E01F0709F0BECF0F900F9068
:100550000F900F90DF91CF911F910F91FF90EF902F
:10056000DF90CF90BF90AF909F908F90089581E0E3
:100570000C944E028091120190911301009711F496
:100580000C94B7028130910511F40C94FB00029792
:1005900011F40C940602089522E546E06BE170E048
:1005A0008EE191E00C945B048EE191E00C94D80212
:1005B000CF93DF93EC0188859985009711F00E9415
:1005C0007F098E8187FD05C060E0DF91CF910C949B
:1005D000C806DF91CF910895CF93DF93EC018E8110
:1005E00087FD07C061E00E94C80660E08E810E941E
:1005F000010781E08983DF91CF910895EF92FF9207
:100600000F931F93CF93DF93EC017B01888599852E
:10061000009711F00E947F099D858A85981303C079
:1006200083E090E002C084E090E08E9D80018F9D89
:10063000100D9E9D100D11241D830C83C8010E9476
:10064000E70899878887009741F0A80160E070E08B
:100650000E940E0AFB82EA8204C01D821C821B8259
:100660001A82DF91CF911F910F91FF90EF90089523
:10067000FC0141E095858285981340E0562F529504
:100680005695569553705587862F90E09C0174E0DF
:10069000359527957A95E1F723702287959587956B
:1006A00095958795837083876370648781E08083E5
:1006B00080859185892B51F081E0521380E0841769
:1006C00029F062817381CF010C94FE020895CF92CC
:1006D000DF92EF92FF920F931F93CF93DF93CDB7EB
:1006E000DEB729970FB6F894DEBF0FBECDBF8C01E1
:1006F000DC0118968D919C911997892B09F49AC069
:100700000E941906F801C684D784E088F1886C1924
:100710007D098E099F09623371058105910580F37A
:10072000F894848195819A838983A085B1857D0120
:10073000EFEFEE1AFE0A8C918987D8019C915296B0
:100740000D90BC91A02DF8018489992309F42EC045
:100750009C91982B98879C91809589238F838F817A
:100760008E8388E08D8358856F8149853D812E81F8
:1007700089819A81F7015C9347FD252F3A952C9347
:10078000262F39F0441F00C000006C93000000C009
:10079000F2CF38E041916C930000019761F7F801C6
:1007A000B38BA28B49873D832E8338C09C91982BB5
:1007B00098879C91809589238F838F818C8388E093
:1007C0008B8358856F8149853B812C8189819A81F2
:1007D000F7015C9347FD252F00C000C02C9300C09B
:1007E00000C000C000C000C06C930000262F3A95E6
:1007F00041F0441F000000C000C000C000C000C0A5
:10080000E8CF38E0419100C06C9300C0019709F730
:10081000F801B38BA28B49873B832C839A8389830E
:1008200078940E941906D8011E966D937D938D933E
:100830009C93519729960FB6F894DEBF0FBECDBF9B
:10084000DF91CF911F910F91FF90EF90DF90CF90AC
:1008500008951F93CF93DF93EC01162F898188238E
:1008600031F08E8187FD03C060E00E94C8061E83C0
:100870008981882341F061E0812F0E94C80660E0F1
:10088000812F0E940107812F90E0FC01E057FF4F6C
:10089000E491F0E0EE0FFF1FEC55FF4F25913491EE
:1008A0003B8B2A8BFC01E458FF4F84918C8BDF91AA
:1008B000CF911F910895EF92FF920F931F93CF93C3
:1008C000DF931F92CDB7DEB77C018B01FC01118253
:1008D00017821186108616861786108A118A622F53
:1008E00049830E943803B801C7010E94FE02498172
:1008F000642FC7010F90DF91CF911F910F91FF904F
:10090000EF900C9429040F931F93CF93DF93DC0196
:1009100012968D919C9113976817790708F042C041
:1009200017968C911797882361F0489FA001112496
:10093000452F289F90011124232F089F8001112407
:10094000012F1D963C911D971A965C911A97189647
:100950008D919C911997FB01351307C0EE0FFF1F76
:10096000E60FF71FE80FF91F0AC0EE0FFF1FEE0F8B
:10097000FF1FE80FF91FEF01C30FD11D18821A9650
:100980008C911A97EF01C80FD11D48831B968C914B
:100990001B97EF01C80FD11D28831C968C91E80F7F
:1009A000F11D0083DF91CF911F910F910895CF9298
:1009B000DF92EF92FF920F931F93CF93DF93FC018F
:1009C000828193816817790708F04DC0CA01AA2770
:1009D000BB27182FC32ED42EE52EFF24DC2DC22FCB
:1009E0000781002361F0809FC0011124192FC09E50
:1009F00060011124DD2D209FC0011124C92FF58431
:100A00008285A085B185F81208C0CB01880F991F97
:100A1000860F971F8A0F9B1F17C0CB01880F991F46
:100A2000880F991F8A0F9B1F452F55276627772709
:100A3000DC01AF0DB11D002329F0409F900111246E
:100A4000232F01C0242F2C932285DC01A20FB11D7E
:100A50001C932385DC01A20FB11DDC932485FC01CE
:100A6000E20FF11DC083DF91CF911F910F91FF9095
:100A7000EF90DF90CF900895962F50E060E070E007
:100A8000592B682BCB01BA010895FC018281938117
:100A900008958230E8F4E82FF0E0EE0FFF1FED5CE0
:100AA000FE4F71836083813041F0809169008C7FBB
:100AB000842B80936900E89A089580916900440F1F
:100AC000551F440F551F837F842B80936900E99A3B
:100AD00008951F920F920FB60F9211242F933F93F8
:100AE0004F935F936F937F938F939F93AF93BF9336
:100AF000EF93FF938091330190913401892B29F07A
:100B0000E0913301F09134010995FF91EF91BF918C
:100B1000AF919F918F917F916F915F914F913F9195
:100B20002F910F900FBE0F901F9018951F920F924C
:100B30000FB60F9211242F933F934F935F936F93B0
:100B40007F938F939F93AF93BF93EF93FF93809186
:100B5000350190913601892B29F0E0913501F09112
:100B600036010995FF91EF91BF91AF919F918F91C0
:100B70007F916F915F914F913F912F910F900FBE99
:100B80000F901F9018951F920F920FB60F9211247D
:100B90002F933F938F939F93AF93BF93809138018F
:100BA00090913901A0913A01B0913B013091370108
:100BB00023E0230F2D3720F40196A11DB11D05C0A0
:100BC00026E8230F0296A11DB11D209337018093C3
:100BD000380190933901A0933A01B0933B01809181
:100BE0003C0190913D01A0913E01B0913F010196E1
:100BF000A11DB11D80933C0190933D01A0933E0146
:100C0000B0933F01BF91AF919F918F913F912F91F1
:100C10000F900FBE0F901F9018952FB7F89460910A
:100C200038017091390180913A0190913B012FBFB9
:100C300008953FB7F89480913C0190913D01A091B7
:100C40003E01B0913F0126B5A89B05C02F3F19F08A
:100C50000196A11DB11D3FBF6627782F892F9A2FBE
:100C6000620F711D811D911D42E0660F771F881F65
:100C7000991F4A95D1F70895CF92DF92EF92FF9294
:100C8000CF93DF936B017C010E941906EB01C11425
:100C9000D104E104F10489F00E9447070E9419067B
:100CA0006C1B7D0B683E734090F381E0C81AD1083D
:100CB000E108F108C851DC4FEACFDF91CF91FF90F6
:100CC000EF90DF90CF900895789484B5826084BDD2
:100CD00084B5816084BD85B5826085BD85B5816040
:100CE00085BDEEE6F0E0808181608083E1E8F0E0A0
:100CF0001082808182608083808181608083E0E8CF
:100D0000F0E0808181608083E1EBF0E080818460AD
:100D10008083E0EBF0E0808181608083EAE7F0E0AF
:100D20008081846080838081826080838081816013
:100D300080838081806880831092C1000895833011
:100D400081F028F4813099F08230A1F00895873045
:100D5000A9F08830B9F08430D1F4809180008F7D83
:100D600003C0809180008F7780938000089584B5C0
:100D70008F7702C084B58F7D84BD08958091B000C7
:100D80008F7703C08091B0008F7D8093B00008956D
:100D9000CF93DF9390E0FC01E458FF4F2491FC01D6
:100DA000E057FF4F8491882349F190E0880F991F05
:100DB000FC01E255FF4FA591B4918C559F4FFC016A
:100DC000C591D4919FB7611108C0F8948C9120957A
:100DD00082238C93888182230AC0623051F4F89474
:100DE0008C91322F309583238C938881822B88833A
:100DF00004C0F8948C91822B8C939FBFDF91CF918C
:100E000008950F931F93CF93DF931F92CDB7DEB753
:100E1000282F30E0F901E859FF4F8491F901E45897
:100E2000FF4F1491F901E057FF4F04910023C9F0DF
:100E3000882321F069830E949F066981E02FF0E0FA
:100E4000EE0FFF1FEC55FF4FA591B4919FB7F8949B
:100E50008C91611103C01095812301C0812B8C936B
:100E60009FBF0F90DF91CF911F910F91089508952B
:100E70000E9464060E9437070E94D700C0E0D0E0BD
:100E80000E94BA022097E1F30E940000F9CF089572
:100E90000CD0E6C0DED040F0D5D030F021F45F3F7A
:100EA00019F0C7C0511110C1CAC0EBD098F39923F3
:100EB000C9F35523B1F3951B550BBB27AA2762171E
:100EC0007307840738F09F5F5F4F220F331F441F63
:100ED000AA1FA9F333D00E2E3AF0E0E830D091509B
:100EE0005040E695001CCAF729D0FE2F27D0660F88
:100EF000771F881FBB1F261737074807AB07B0E8C7
:100F000009F0BB0B802DBF01FF2793585F4F2AF0DC
:100F10009E3F510568F08DC0D7C05F3FECF3983E0F
:100F2000DCF3869577956795B795F7959F5FC9F739
:100F3000880F911D9695879597F90895E1E0660FC2
:100F4000771F881FBB1F621773078407BA0720F03B
:100F5000621B730B840BBA0BEE1F88F7E0950895A4
:100F600098D088F09F5790F0B92F9927B751A0F0EB
:100F7000D1F0660F771F881F991F1AF0BA95C9F72D
:100F800012C0B13081F09FD0B1E008959CC0672FAE
:100F9000782F8827B85F39F0B93FCCF386957795DD
:100FA0006795B395D9F73EF49095809570956195C6
:100FB0007F4F8F4F9F4F0895E89409C097FB3EF4F1
:100FC00090958095709561957F4F8F4F9F4F992396
:100FD000A9F0F92F96E9BB279395F6958795779514
:100FE0006795B795F111F8CFFAF4BB0F11F460FFD4
:100FF0001BC06F5F7F4F8F4F9F4F16C0882311F02C
:1010000096E911C0772321F09EE8872F762F05C03F
:10101000662371F096E8862F70E060E02AF09A95DA
:10102000660F771F881FDAF7880F9695879597F9CF
:10103000089597F99F6780E870E060E008959FEF5A
:1010400080EC089500240A9416161706180609065F
:10105000089500240A94121613061406050608952E
:10106000092E0394000C11F4882352F0BB0F40F4B6
:10107000BF2B11F460FF04C06F5F7F4F8F4F9F4FF6
:10108000089557FD9058440F551F59F05F3F71F078
:101090004795880F97FB991F61F09F3F79F08795DF
:1010A0000895121613061406551FF2CF4695F1DF68
:1010B00008C0161617061806991FF1CF86957105F8
:1010C000610508940895E894BB2766277727CB012C
:1010D00097F908950BD0C4CFB5DF28F0BADF18F028
:1010E000952309F0A6CFABCF1124EECFCADFA0F332
:1010F000959FD1F3950F50E0551F629FF001729FAD
:10110000BB27F00DB11D639FAA27F00DB11DAA1FCB
:10111000649F6627B00DA11D661F829F2227B00D18
:10112000A11D621F739FB00DA11D621F839FA00DA3
:10113000611D221F749F3327A00D611D231F849FF3
:10114000600D211D822F762F6A2F11249F5750404A
:101150008AF0E1F088234AF0EE0FFF1FBB1F661FE5
:10116000771F881F91505040A9F79E3F510570F09E
:1011700060CFAACF5F3FECF3983EDCF3869577957E
:101180006795B795F795E7959F5FC1F7FE2B880F99
:10119000911D9695879597F90895AA1BBB1B51E160
:1011A00007C0AA1FBB1FA617B70710F0A61BB70BD7
:1011B000881F991F5A95A9F780959095BC01CD017C
:1011C0000895EE0FFF1F0590F491E02D0994CF9341
:1011D000DF938230910510F482E090E0E0914201CB
:1011E000F091430120E030E0A0E0B0E0309739F129
:1011F0004081518148175907B8F04817590771F4D1
:1012000082819381109729F013969C938E93129765
:101210002CC0909343018093420127C021153105D2
:1012200031F04217530718F0A901DB0101C0EF01AB
:101230009A01BD01DF010280F381E02DD7CF211596
:101240003105F9F0281B390B2430310580F48A81EF
:101250009B816115710521F0FB019383828304C09A
:101260009093430180934201FE01329644C0FE01F7
:10127000E20FF31F81939193225031093983288320
:101280003AC02091400130914101232B41F420913B
:1012900002013091030130934101209340012091DC
:1012A0000001309101012115310541F42DB73EB700
:1012B0004091040150910501241B350BE091400140
:1012C000F0914101E217F307A0F42E1B3F0B281702
:1012D000390778F0AC014E5F5F4F2417350748F0AF
:1012E0004E0F5F1F509341014093400181939193B2
:1012F00002C0E0E0F0E0CF01DF91CF910895CF93FD
:10130000DF93009709F487C0FC01329713821282A1
:10131000C0914201D0914301209781F42081318115
:10132000280F391F80914001909141018217930746
:1013300079F5F0934101E09340016DC0DE0120E0BA
:1013400030E0AE17BF0750F412964D915C911397A1
:101350009D014115510509F1DA01F3CFB383A28351
:1013600040815181840F951F8A179B0771F48D91DD
:101370009C911197840F951F0296918380831296FA
:101380008D919C911397938382832115310529F4C4
:10139000F0934301E09342013EC0D9011396FC93C0
:1013A000EE9312974D915D91A40FB51FEA17FB07BD
:1013B00079F480819181840F951F0296D90111964D
:1013C0009C938E938281938113969C938E93129714
:1013D000E0E0F0E08A819B81009719F0FE01EC01CA
:1013E000F9CFCE01029628813981820F931F209177
:1013F0004001309141012817390769F4309729F4E9
:10140000109243011092420102C013821282D093C3
:101410004101C0934001DF91CF910895DC0101C0EB
:101420006D9341505040E0F7089510E0CAEBD0E0D2
:1014300004C0FE010E94E3082296CC3BD107C9F705
:04144000F894FFCF4E
:1014440000004401800000004842A69BC43B73682E
:02145400913DC8
:00000001FF
