:100000000FC1000062C600008BC60000B4C600002D
:10001000DDC6000006C700002FC7000058C700005B
:1000200081C700002EC100002CC100002AC10000C1
:1000300028C1000026C1000024C1000022C1000028
:1000400020C100001EC100001CC100001AC1000038
:1000500018C1000016C1000014C100008EC70000C6
:1000600010C100000EC100000CC100000AC1000058
:1000700008C1000006C1000004C1000002C1000068
:1000800000C10000FEC00000FCC00000FAC000007B
:10009000F8C00000F6C00000F4C00000F2C000008C
:1000A000F0C00000EEC00000ECC00000EAC000009C
:1000B000E8C00000E6C00000E4C00000E2C00000AC
:1000C000E0C00000DEC00000DCC00000DAC00000BC
:1000D000D8C00000D6C00000D4C00000D2C00000CC
:1000E000D0C000003F06090611061D062A064B0671
:1000F0005806D508D808C708CB08D1080F09DC086E
:10010000E008E608EA08EE08F408F808FC080F0919
:10011000020906090A0900000A0B02090C0D0E0863
:1001200007030401000000000000000000000000C0
:1001300000000000000000000000000000000000BF
:10014000000012111000000000000000000000007C
:10015000000000000000000000000000010210206C
:1001600020080810204010204080020102010804ED
:100170000201010204081020408080402010080481
:1001800002018004020180402010080402010804DA
:10019000020101020408102040800102040810201E
:1001A0004080050505050705080808080202020247
:1001B0000A0A080804040404010101010101010103
:1001C0000303030303030303040707070C0C0C0CCE
:1001D0000C0C0C0C020202020606060606060606B7
:1001E0000B0B0B0B0B0B0B0B000022002500280048
:1001F0002B002E003100340002010000050108012F
:100200000B0100002100240027002A002D003000EF
:10021000330001010000040107010A017C0384038B
:1002200011241FBECFEFD1E2DEBFCDBF00E00CBF77
:1002300012E0A0E0B2E0E4EEF8E100E00BBF02C0A3
:1002400007900D92A432B107D9F722E0A4E2B2E000
:1002500001C01D92A235B207E1F712E0CEE1D2E073
:1002600000E006C022970109FE010BBF0E942F0B80
:10027000CC31D10780E00807A9F70E947F090C94D0
:10028000610CBECE80912E0290912F020196909328
:100290002F0280932E020895EF92FF920F93CF9337
:1002A000DF938091240290912502039721F410920C
:1002B000250210922402E12CF12C809124029091CD
:1002C00025028E159F05E4F0C0E0D0E00FEF2FEF80
:1002D0004FEFBE0180E392E0C1D380E392E0AAD267
:1002E00064E670E080E090E0C1D680E392E0A2D2C4
:1002F0002196CC33D10551F78FEFE81AF80ADDCFFC
:10030000DF91CF910F91FF90EF90089542E050E080
:1003100062E471E080E069D443E050E06CE471E0B5
:1003200081E063D474D660932A0270932B02809389
:100330002C0290932D0280E392E0FCD180E392E0C6
:1003400079D261E082E0A5C7CF92DF92EF92FF926F
:100350000F931F93CF93DF93C0E0D0E0C12CD12C3B
:1003600088ECE82E82E4F82E0FEF20E040E0BE019A
:1003700080E392E073D300E020E040E0BE016350F0
:10038000710980E392E06AD380E392E053D23FD6D2
:1003900000912A0210912B0220912C0230912D0203
:1003A00008511C4F2F4F3F4F0617170728073907D3
:1003B00008F04FC060912E0270912F0280E090E013
:1003C0000E94240A209110023091110240911202E1
:1003D000509113020E94B20A9B01AC016093260265
:1003E00070932702809328029093290280912E0215
:1003F00090912F02892BC1F060910C0270910D0237
:1004000080910E0290910F0286D720E030E04AE7FB
:1004100054E40E94B20A6093080270930902809328
:100420000A0290930B0208C0C0920802D0920902FF
:10043000E0920A02F0920B0210922F0210922E020A
:10044000E6D560932A0270932B0280932C0290933E
:100450002D02609108027091090280910A02909128
:100460000B02C6D703D62196CF33D10509F07CCF36
:10047000DF91CF911F910F91FF90EF90DF90CF9080
:1004800008950F931F93CF93DF93C0E0D0E0809146
:10049000060290910702C817D90764F40FEF20E015
:1004A00040E0BE0180E392E0D9D280E392E0C2D185
:1004B0002196EDCFACD500912A0210912B0220910C
:1004C0002C0230912D0208511C4F2F4F3F4F061721
:1004D000170728073907B0F560912E0270912F0297
:1004E00080E090E0B1D7209110023091110240914C
:1004F0001202509113020E94B20A60932602709376
:100500002702809328029093290220912E02309195
:100510002F02232B39F081E090E090930702809323
:10052000060210C020E030E040E251E4F4D620E0C2
:1005300030E040E752E40E94B20A55D770930702B8
:1005400060930602DF91CF911F910F910895853539
:1005500040F4982F990F980F692F609540E0892FEC
:1005600012C08A3A48F49BEA980F892F880F890FA6
:10057000482F60E0809507C08A5A682F660F680F81
:10058000462F409580E023C3AF92BF92CF92DF9277
:10059000EF92FF920F931F93CF93DF9300E010E051
:1005A000C82ED12CE12CF12CA12CB12CC0E0D0E034
:1005B00080E392E015D3C817D90798F480E392E05E
:1005C0000FD3BC01C5010E94150B862F800FBFDF22
:1005D0009B01AC01BE0180E392E094D22196B394DA
:1005E000E7CF80E392E026D1C701B6013FD50F5F88
:1005F0001F4F011585E01807B9F6DF91CF911F91C4
:100600000F91FF90EF90DF90CF90BF90AF90089543
:100610000F931F93FCD400912A0210912B0220917A
:100620002C0230912D0208511C4F2F4F3F4F0617BF
:1006300017072807390708F048C060912E0270910B
:100640002F0280E090E000D720911002309111023B
:10065000409112025091130285D79B01AC01609327
:10066000260270932702809328029093290280919A
:100670002E0290912F02892BC9F060910C0270918B
:100680000D0280910E0290910F0245D620E030E0DD
:100690004AE754E467D76093080270930902809395
:1006A0000A0290930B02A4D6862F01C081E06CDF72
:1006B00010922F0210922E02AAD460932A027093F5
:1006C0002B0280932C0290932D026091080270916E
:1006D000090280910A0290910B028AD61F910F9114
:1006E000C5C48091240290912502009709F42CCE74
:1006F000019709F48DCFC5CE22E530E046E06CE3EA
:1007000070E080E392E085C180E392E000C0CF9387
:10071000DF93EC0188859985009711F00E94CB0B3F
:100720008E8187FD04C060E0DF91CF9179C5DF91B4
:10073000CF910895CF93DF93EC018E8187FD05C0A3
:1007400061E06ED560E08E81A4D581E08983DF9180
:10075000CF910895EF92FF920F931F93CF93DF9362
:10076000EC017B0188859985009711F00E94CB0BE5
:100770009D858A85981303C083E090E002C084E0E1
:1007800090E08E9D80018F9D100D9E9D100D112477
:100790001D830C83C80167D799878887009741F02C
:1007A000A80160E070E00E945A0CFB82EA8204C05B
:1007B0001D821C821B821A82DF91CF911F910F91A3
:1007C000FF90EF900895FC0121E0958582859813B4
:1007D00020E0CB0136E0969587953A95E1F7482FD2
:1007E00043704587CB0154E0969587955A95E1F77C
:1007F000382F33703287CB019695879596958795DC
:1008000083708387862F8370848781E06F3F7105B3
:1008100011F008F080E0808380859185892B49F074
:1008200091E0431390E0921721F062817381CF0130
:1008300091CF0895CF92DF92EF92FF920F931F9383
:10084000CF93DF93CDB7DEB729970FB6F894DEBF0D
:100850000FBECDBF8C01DC0118968D919C9119972C
:10086000892B09F498C0DFD3F801C684D784E088C7
:10087000F1886C197D098E099F0962337105810524
:10088000910588F3F894848195819A838983A08562
:10089000B1857D01EFEFEE1AFE0A8C918987D801B0
:1008A0009C9152960D90BC91A02DF80184899923BA
:1008B00009F42EC09C91982B98879C918095892350
:1008C0008F838F818E8388E08D8358856F814985E2
:1008D0003D812E8189819A81F7015C9347FD252F07
:1008E0003A952C93262F39F0441F00C000006C93DA
:1008F000000000C0F2CF38E041916C9300000197F6
:1009000061F7F801B38BA28B49873D832E8338C0F2
:100910009C91982B98879C91809589238F838F81B8
:100920008C8388E08B8358856F8149853B812C813E
:1009300089819A81F7015C9347FD252F00C000C093
:100940002C9300C000C000C000C000C06C93000029
:10095000262F3A9541F0441F000000C000C000C09F
:1009600000C000C0E8CF38E0419100C06C9300C0E7
:10097000019709F7F801B38BA28B49873B832C833E
:100980009A83898378944FD3D8011E966D937D9373
:100990008D939C93519729960FB6F894DEBF0FBEA6
:1009A000CDBFDF91CF911F910F91FF90EF90DF901E
:1009B000CF9008951F93CF93DF93EC01162F898179
:1009C000882329F08E8187FD02C060E029D41E8330
:1009D0008981882331F061E0812F22D460E0812F6A
:1009E00058D4812F90E0FC01EE55FE4FE491F0E0E9
:1009F000EE0FFF1FE851FE4F259134913B8B2A8B60
:100A0000FC01E45AFE4F84918C8BDF91CF911F91B2
:100A10000895EF92FF920F931F93CF93DF931F924E
:100A2000CDB7DEB77C018B01FC01118217821186E4
:100A3000108616861786108A118AB9014983C3DE8B
:100A4000B801C70187DE4981642FC7010F90DF918C
:100A5000CF911F910F91FF90EF90ACCF0F931F9309
:100A6000CF93DF93DC0112968D919C9113976817B9
:100A7000790708F042C017968C911797882361F088
:100A8000489FA0011124452F289F90011124232F56
:100A9000089F80011124012F1D963C911D971A96E5
:100AA0005C911A9718968D919C911997FB013513BB
:100AB00007C0EE0FFF1FE60FF71FE80FF91F0AC070
:100AC000EE0FFF1FEE0FFF1FE80FF91FEF01C30F1F
:100AD000D11D18821A968C911A97EF01C80FD11D5B
:100AE00048831B968C911B97EF01C80FD11D28835B
:100AF0001C968C91E80FF11D0083DF91CF911F911F
:100B00000F910895CF92DF92EF92FF920F931F9370
:100B1000CF93DF93FC01828193816817790708F0F6
:100B20004DC0CA01AA27BB27182FC32ED42EE52EED
:100B3000FF24DC2DC22F0781002361F0809FC001BC
:100B40001124192FC09E60011124DD2D209FC001AA
:100B50001124C92FF5848285A085B185F81208C0BB
:100B6000CB01880F991F860F971F8A0F9B1F17C0F5
:100B7000CB01880F991F880F991F8A0F9B1F452F44
:100B8000552766277727DC01AF0DB11D002329F01B
:100B9000409F90011124232F01C0242F2C932285E4
:100BA000DC01A20FB11D1C932385DC01A20FB11D36
:100BB000DC932485FC01E20FF11DC083DF91CF910E
:100BC0001F910F91FF90EF90DF90CF900895962F97
:100BD00050E060E070E0592B682BCB01BA0108951A
:100BE000FC018281938108950895883008F06CC0DB
:100BF000E82FF0E0EE0FFF1FEC5EFD4F7183608386
:100C000090E0FC013197E730F10588F5EE58FF4F91
:100C100020C5809169008C7F842B80936900E89ABD
:100C2000089580916900440F551F440F551F837F1D
:100C3000842B80936900E99A08958091690074E09B
:100C4000440F551F7A95E1F78F7C842B80936900C0
:100C5000EA9A08958091690066E0440F551F6A95ED
:100C6000E1F78F73842B80936900EB9A089580914C
:100C70006A008C7F842B80936A00EC9A089580919F
:100C80006A00440F551F440F551F837F842B8093A8
:100C90006A00ED9A089580916A0024E0440F551F80
:100CA0002A95E1F78F7C842B80936A00EE9A089551
:100CB00080916A0096E0440F551F9A95E1F78F7373
:100CC000842B80936A00EF9A08951F920F920FB6BB
:100CD0000F9211240BB60F922F933F934F935F9374
:100CE0006F937F938F939F93AF93BF93EF93FF93F4
:100CF000E0911802F09119021995FF91EF91BF91BF
:100D0000AF919F918F917F916F915F914F913F91A3
:100D10002F910F900BBE0F900FBE0F901F90189544
:100D20001F920F920FB60F9211240BB60F922F93B2
:100D30003F934F935F936F937F938F939F93AF9363
:100D4000BF93EF93FF93E0911A02F0911B02199564
:100D5000FF91EF91BF91AF919F918F917F916F9193
:100D60005F914F913F912F910F900BBE0F900FBE4F
:100D70000F901F9018951F920F920FB60F9211248B
:100D80000BB60F922F933F934F935F936F937F9385
:100D90008F939F93AF93BF93EF93FF93E0911C02C8
:100DA000F0911D021995FF91EF91BF91AF919F9125
:100DB0008F917F916F915F914F913F912F910F9004
:100DC0000BBE0F900FBE0F901F9018951F920F92A1
:100DD0000FB60F9211240BB60F922F933F934F93A0
:100DE0005F936F937F938F939F93AF93BF93EF9393
:100DF000FF93E0911E02F0911F021995FF91EF9170
:100E0000BF91AF919F918F917F916F915F914F9122
:100E10003F912F910F900BBE0F900FBE0F901F9020
:100E200018951F920F920FB60F9211240BB60F92C6
:100E30002F933F934F935F936F937F938F939F93E2
:100E4000AF93BF93EF93FF93E0911402F0911502DB
:100E50001995FF91EF91BF91AF919F918F917F91E4
:100E60006F915F914F913F912F910F900BBE0F901B
:100E70000FBE0F901F9018951F920F920FB60F92F2
:100E800011240BB60F922F933F934F935F936F9361
:100E90007F938F939F93AF93BF93EF93FF93E091D3
:100EA0001602F09117021995FF91EF91BF91AF9142
:100EB0009F918F917F916F915F914F913F912F9172
:100EC0000F900BBE0F900FBE0F901F9018951F92A2
:100ED0000F920FB60F9211240BB60F922F933F93E0
:100EE0004F935F936F937F938F939F93AF93BF9332
:100EF000EF93FF93E0912002F09121021995FF9169
:100F0000EF91BF91AF919F918F917F916F915F9181
:100F10004F913F912F910F900BBE0F900FBE0F90EE
:100F20001F9018951F920F920FB60F9211240BB6B7
:100F30000F922F933F934F935F936F937F938F9372
:100F40009F93AF93BF93EF93FF93E0912202F091B1
:100F500023021995FF91EF91BF91AF919F918F91CE
:100F60007F916F915F914F913F912F910F900BBEA9
:100F70000F900FBE0F901F9018951F920F920FB6F3
:100F80000F9211242F933F938F939F93AF93BF930F
:100F90008091460290914702A0914802B091490287
:100FA0003091450223E0230F2D3720F40196A11D37
:100FB000B11D05C026E8230F0296A11DB11D209387
:100FC00045028093460290934702A0934802B09353
:100FD000490280914A0290914B02A0914C02B0913B
:100FE0004D020196A11DB11D80934A0290934B02C0
:100FF000A0934C02B0934D02BF91AF919F918F91FE
:101000003F912F910F900FBE0F901F9018952FB703
:10101000F894609146027091470280914802909145
:1010200049022FBF08953FB7F89480914A029091EA
:101030004B02A0914C02B0914D0226B5A89B05C071
:101040002F3F19F00196A11DB11D3FBF6627782FD4
:10105000892F9A2F620F711D811D911D42E0660F2D
:10106000771F881F991F4A95D1F70895CF92DF9275
:10107000EF92FF92CF93DF936B017C01D4DFEB0102
:10108000C114D104E104F10479F044D1CCDF6C1B2C
:101090007D0B683E7340A0F381E0C81AD108E108D7
:1010A000F108C851DC4FECCFDF91CF91FF90EF906A
:1010B000DF90CF900895789484B5826084BD84B524
:1010C000816084BD85B5826085BD85B5816085BD43
:1010D000EEE6F0E0808181608083E1E8F0E010825C
:1010E000808182608083808181608083E0E8F0E09D
:1010F000808181608083E1EBF0E080818460808387
:10110000E0EBF0E0808181608083E1E9F0E08081C4
:1011100082608083808181608083E0E9F0E080816B
:1011200081608083E1EAF0E0808182608083808159
:1011300081608083E0EAF0E0808181608083E1E289
:10114000F1E0808182608083808181608083E0E241
:10115000F1E0808181608083EAE7F0E08081846053
:1011600080838081826080838081816080838081B0
:10117000806880831092C100089590E0FC0131974F
:10118000E231F10508F04BC0E758FF4F62C2809191
:1011900080008F7703C0809180008F7D80938000D6
:1011A000089580918000877FF9CF84B58F7702C042
:1011B00084B58F7D84BD08958091B0008F7703C082
:1011C0008091B0008F7D8093B00008958091900051
:1011D0008F7707C0809190008F7D03C08091900031
:1011E000877F8093900008958091A0008F7707C03B
:1011F0008091A0008F7D03C08091A000877F8093A5
:10120000A0000895809120018F7707C08091200170
:101210008F7D03C080912001877F809320010895F6
:10122000CF93DF9390E0FC01E45AFE4F2491FC0140
:10123000EE55FE4F8491882349F190E0880F991F65
:10124000FC01EE5FFD4FA591B49188519E4FFC01CA
:10125000C591D4919FB7611108C0F8948C912095E5
:1012600082238C93888182230AC0623051F4F894DF
:101270008C91322F309583238C938881822B8883A5
:1012800004C0F8948C91822B8C939FBFDF91CF91F7
:1012900008950F931F93CF93DF931F92CDB7DEB7BF
:1012A000282F30E0F901EA5EFE4F8491F901E45AFB
:1012B000FE4F1491F901EE55FE4F04910023C1F049
:1012C000882319F0698359DF6981E02FF0E0EE0F80
:1012D000FF1FE851FE4FA591B4919FB7F8948C91F0
:1012E000611103C01095812301C0812B8C939FBF96
:1012F0000F90DF91CF911F910F9108950895DBDE3C
:10130000FDDF04D8C0E0D0E0ECD92097E9F30E94DB
:101310000000FACF08950CD0EBC0E3D040F0DAD053
:1013200030F021F45F3F19F0CCC0511115C1CFC08E
:10133000F0D098F39923C9F35523B1F3951B550BBE
:10134000BB27AA2762177307840738F09F5F5F4F98
:10135000220F331F441FAA1FA9F333D00E2E3AF0D9
:10136000E0E830D091505040E695001CCAF729D0F3
:10137000FE2F27D0660F771F881FBB1F2617370742
:101380004807AB07B0E809F0BB0B802DBF01FF2772
:1013900093585F4F2AF09E3F510568F092C0DCC021
:1013A0005F3FECF3983EDCF3869577956795B795AC
:1013B000F7959F5FC9F7880F911D9695879597F9C7
:1013C0000895E1E0660F771F881FBB1F6217730740
:1013D0008407BA0720F0621B730B840BBA0BEE1F55
:1013E00088F7E095089504D06894B111B5C00895C8
:1013F00098D088F09F5790F0B92F9927B751A0F057
:10140000D1F0660F771F881F991F1AF0BA95C9F798
:1014100012C0B13081F09FD0B1E008959CC0672F19
:10142000782F8827B85F39F0B93FCCF38695779548
:101430006795B395D9F73EF4909580957095619531
:101440007F4F8F4F9F4F0895E89409C097FB3EF45C
:1014500090958095709561957F4F8F4F9F4F992301
:10146000A9F0F92F96E9BB279395F695879577957F
:101470006795B795F111F8CFFAF4BB0F11F460FF3F
:101480001BC06F5F7F4F8F4F9F4F16C0882311F097
:1014900096E911C0772321F09EE8872F762F05C0AB
:1014A000662371F096E8862F70E060E02AF09A9546
:1014B000660F771F881FDAF7880F9695879597F93B
:1014C000089597F99F6780E870E060E008959FEFC6
:1014D00080EC089500240A941616170618060906CB
:1014E000089500240A94121613061406050608959A
:1014F000092E0394000C11F4882352F0BB0F40F422
:10150000BF2B11F460FF04C06F5F7F4F8F4F9F4F61
:10151000089557FD9058440F551F59F05F3F71F0E3
:101520004795880F97FB991F61F09F3F79F087954A
:101530000895121613061406551FF2CF4695F1DFD3
:1015400008C0161617061806991FF1CF8695710563
:10155000610508940895E894BB2766277727CB0197
:1015600097F908950BD0C4CFB5DF28F0BADF18F093
:10157000952309F0A6CFABCF1124EECFCADFA0F39D
:10158000959FD1F3950F50E0551F629FF001729F18
:10159000BB27F00DB11D639FAA27F00DB11DAA1F37
:1015A000649F6627B00DA11D661F829F2227B00D84
:1015B000A11D621F739FB00DA11D621F839FA00D0F
:1015C000611D221F749F3327A00D611D231F849F5F
:1015D000600D211D822F762F6A2F11249F575040B6
:1015E0008AF0E1F088234AF0EE0FFF1FBB1F661F51
:1015F000771F881F91505040A9F79E3F510570F00A
:1016000060CFAACF5F3FECF3983EDCF386957795E9
:101610006795B795F795E7959F5FC1F7FE2B880F04
:10162000911D9695879597F90895AA1BBB1B51E1CB
:1016300007C0AA1FBB1FA617B70710F0A61BB70B42
:10164000881F991F5A95A9F780959095BC01CD01E7
:101650000895EE0FFF1F0590F491E02D1994079067
:10166000F691E02D1994CF93DF938230910510F419
:1016700082E090E0E0915002F091510220E030E0F1
:10168000A0E0B0E0309739F1408151814817590707
:10169000B8F04817590771F482819381109729F0A7
:1016A00013969C938E9312972CC090935102809323
:1016B000500227C02115310531F04217530718F0A9
:1016C000A901DB0101C0EF019A01BD01DF01028028
:1016D000F381E02DD7CF21153105F9F0281B390B07
:1016E0002430310580F48A819B816115710521F0D8
:1016F000FB019383828304C0909351028093500234
:10170000FE01329644C0FE01E20FF31F81939193D4
:1017100022503109398328833AC020914E023091FA
:101720004F02232B41F420910202309103023093A7
:101730004F0220934E0220910002309101022115A8
:10174000310541F42DB73EB7409104025091050296
:10175000241B350BE0914E02F0914F02E217F30784
:10176000A0F42E1B3F0B2817390778F0AC014E5F11
:101770005F4F2417350748F04E0F5F1F50934F02FD
:1017800040934E028193919302C0E0E0F0E0CF01DC
:10179000DF91CF910895CF93DF93009709F487C02D
:1017A000FC01329713821282C0915002D0915102F3
:1017B000209781F420813181280F391F80914E02BA
:1017C00090914F028217930779F5F0934F02E093BF
:1017D0004E026DC0DE0120E030E0AE17BF0750F4CE
:1017E00012964D915C9113979D014115510509F198
:1017F000DA01F3CFB383A28340815181840F951F17
:101800008A179B0771F48D919C911197840F951FF6
:1018100002969183808312968D919C911397938366
:1018200082832115310529F4F0935102E09350028F
:101830003EC0D9011396FC93EE9312974D915D91A2
:10184000A40FB51FEA17FB0779F480819181840FFB
:10185000951F0296D90111969C938E938281938154
:1018600013969C938E931297E0E0F0E08A819B811F
:10187000009719F0FE01EC01F9CFCE010296288104
:101880003981820F931F20914E0230914F02281709
:10189000390769F4309729F41092510210925002DE
:1018A00002C013821282D0934F02C0934E02DF9186
:1018B000CF910895DC0101C06D9341505040E0F795
:1018C000089512E0CEE1D2E000E005C022970109C0
:1018D000FE010BBFC4DEC032D10780E00807B1F7BC
:0418E000F894FFCFAA
:1018E400000052028000010000004842A69BC43B55
:1018F4007368913DF405F405F405F405F405F40565
:04190400F405F405ED
:00000001FF
