:100000000C94DE020C94710E0C944A0E0C940603B0
:100010000C94C60F0C9406030C9406030C94060370
:100020000C9406030C9406030C9406030C9406032C
:100030000C9406030C9406030C9406030C9406031C
:100040000C94000E0C9406030C9406030C94060307
:100050000C9406030C9406030C9406030C940603FC
:100060000C94980E0C94060300000000003E5B4FB9
:100070005B3E3E6B4F6B3E1C3E7C3E1C183C7E3C08
:10008000181C577D571C1C5E7F5E1C00183C180016
:10009000FFE7C3E7FF0018241800FFE7DBE7FF30A6
:1000A000483A060E2629792926407F050507407F14
:1000B00005253F5A3CE73C5A7F3E1C1C08081C1C87
:1000C0003E7F14227F22145F5F005F5F06097F017D
:1000D0007F006689956A606060606094A2FFA29468
:1000E00008047E040810207E201008082A1C080836
:1000F0001C2A08081E101010100C1E0C1E0C303884
:100100003E3830060E3E0E06000000000000005F84
:1001100000000007000700147F147F14242A7F2AA0
:100120001223130864623649562050000807030062
:10013000001C2241000041221C002A1C7F1C2A08AE
:10014000083E080800807030000808080808000011
:1001500060600020100804023E5149453E00427F85
:10016000400072494949462141494D331814127FD4
:100170001027454545393C4A494931412111090774
:100180003649494936464949291E000014000000F5
:1001900040340000000814224114141414140041C7
:1001A00022140802015909063E415D594E7C121184
:1001B000127C7F494949363E414141227F414141BC
:1001C0003E7F494949417F090909013E4141517337
:1001D0007F0808087F00417F41002040413F017FA8
:1001E000081422417F404040407F021C027F7F0470
:1001F00008107F3E4141413E7F090909063E4151B9
:10020000215E7F09192946264949493203017F01A8
:10021000033F4040403F1F2040201F3F4038403FA9
:10022000631408146303047804036159494D4300BF
:100230007F4141410204081020004141417F0402F6
:10024000010204404040404000030708002054548D
:1002500078407F284444383844444428384444286B
:100260007F385454541800087E090218A4A49C78BE
:100270007F0804047800447D40002040403D007F1A
:100280001028440000417F40007C047804787C08FA
:100290000404783844444438FC18242418182424CE
:1002A00018FC7C08040408485454542404043F44B3
:1002B000243C4040207C1C2040201C3C4030403CE2
:1002C00044281028444C9090907C4464544C440042
:1002D00008364100000077000000413608000201A6
:1002E0000204023C2623263C1EA1A161123A404092
:1002F000207A38545455592155557941225454780F
:1003000042215554784020545579400C1E527212A7
:100310003955555559395454545939555454580030
:1003200000457C410002457D420001457C407D1234
:1003300011127DF0282528F07C5455450020545496
:100340007C547C0A097F4932494949323A44444441
:100350003A324A4848303A4141217A3A424020787C
:10036000009DA0A07D3D4242423D3D4040403D3C7D
:1003700024FF2424487E4943662B2FFC2F2BFF09A2
:1003800029F620C0887E0903205454794100004496
:100390007D413048484A32384040227A007A0A0A81
:1003A000727D0D19317D2629292F282629292926F4
:1003B00030484D4020380808080808080808382F39
:1003C00010C8ACBA2F102834FA00007B00000814C3
:1003D0002A142222142A14085500550055AA55AA99
:1003E00055AAFF55FF55FF000000FF00101010FF39
:1003F00000141414FF001010FF00FF1010F010F094
:10040000141414FC001414F700FF0000FF00FF1484
:1004100014F404FC141417101F10101F101F1414D0
:10042000141F00101010F0000000001F101010101A
:100430001F10101010F010000000FF10101010100E
:1004400010101010FF10000000FF140000FF00FF4C
:1004500000001F10170000FC04F4141417101714E8
:1004600014F404F40000FF00F7141414141414140A
:10047000F700F7141414171410101F101F1414147D
:10048000F4141010F010F000001F101F0000001FE7
:1004900014000000FC140000F010F01010FF10FF1A
:1004A000141414FF141010101F00000000F010FFAF
:1004B000FFFFFFFFF0F0F0F0F0FFFFFF0000000093
:1004C00000FFFF0F0F0F0F0F3844443844FC4A4A17
:1004D0004A347E02020606027E027E0263554941CC
:1004E000633844443C04407E201E2006027E020203
:1004F00099A5E7A5991C2A492A1C4C7201724C3017
:100500004A4D4D303048784830BC625A463D3E49ED
:100510004949007E0101017E2A2A2A2A2A44445F91
:10052000444440514A444040444A51400000FF0185
:1005300003E080FF000008086B6B08361236243693
:10054000060F090F060000181800000010100030F8
:1005500040FF0101001F01011E00191D1712003C80
:100560003C3C3C00000000000000000800020100CC
:10057000000304070000000000000000000000006D
:10058000240027002A0001020408102040800102F4
:1005900004081020010204081020000000002500BB
:1005A00028002B00040404040404040402020202D0
:1005B00002020303030303036C1A771311241FBE03
:1005C000CFEFD8E0DEBFCDBF13E0A0E0B1E0EAEFAF
:1005D000FDE302C005900D92AC39B107D9F724E0D4
:1005E000ACE9B3E001C01D92A13AB207E1F712E015
:1005F000CDEDD2E004C02197FE010E947C1BCC3DD2
:10060000D107C9F70E9487130C94F01E0C940000C8
:10061000CF92DF92EF92FF920F931F93CF93DF93CE
:100620006C017A018B01C0E0D0E0CE15DF0589F0C6
:10063000D8016D918D01D601ED91FC910190F08171
:10064000E02DC6010995892B11F47E0102C0219687
:10065000ECCFC701DF91CF911F910F91FF90EF90E9
:10066000DF90CF90089508950F931F93CF93DF935A
:10067000DC0155968C915597823071F0833009F1E9
:10068000813009F08CC01496ED91FC911597E41B14
:10069000F50BE21BF30B20C01496ED91FC9115971E
:1006A000CF01861B970BBC01615071091696ED9125
:1006B000FC911797CF01841B950BAC01421B530B88
:1006C0006EC01696ED91FC911797CF01861B970B84
:1006D000BC0161507109FA0177FD1BC116968D911D
:1006E0009C911797681779070CF013C1F7FF04C0A6
:1006F0002E0F3F1FE0E0F0E014968D919C9115972E
:10070000AF01420F531F841795071CF49C012E1B49
:100710003F0B121613060CF0FCC0CB0177FD0796B9
:1007200043E0959587954A95E1F79695982F882708
:1007300097958795E80FF91FEC5EFE4F6770772756
:1007400081E090E001C0880F6A95EAF7482F0130F8
:10075000110541F088F00230110509F0DAC02E0FC2
:100760003F1F15C02E0F3F1FE217F30709F4D1C03A
:100770008081842B8193F8CF80952E0F3F1FE21745
:10078000F30709F4C6C0908198239193F8CFE2173C
:10079000F30709F4BEC0808184278193F8CF77FDE9
:1007A000B8C014968D919C911597681779070CF035
:1007B000B0C057FF04C0240F351F40E050E016962C
:1007C0008D919C911797FA01E20FF31F8E179F07E7
:1007D0001CF49C01241B350B121613060CF099C057
:1007E000A22F842F86958695869590E8899F600D27
:1007F000711D1124FB01EC5EFE4F4770A9F198E0DA
:10080000941B492F50E0EA01CE5DDC4F8881291707
:1008100090F4421B51092FEF30E002C03595279527
:100820004A95E2F782230130110541F068F0023069
:10083000110589F06EC00130110519F42081822B59
:100840000CC00130110520F480952081822305C061
:100850000230110531F4208182278083A91708F422
:1008600058C0A91BE058FF4FA83048F102301105CD
:1008700059F4EF018A2F988190959883C058DF4FE3
:1008800088508830C0F730C081E00130110509F090
:1008900080E08195EF019A2F8883C058DF4F9850F0
:1008A0009830D0F788EF8A0F86958695869590E8E0
:1008B000899FE00DF11D1124E058FF4FA770AA2376
:1008C00041F1B0E0A65EBC4F8C910130110529F0DA
:1008D00038F002301105D1F01CC09081892B18C06E
:1008E00080959081892314C088EF8A0F869586951C
:1008F000869590E8899FE00DF11D1124E058FF4F87
:10090000A77039F0B0E0A65EBC4F8C91908189272A
:100910008083DF91CF911F910F9108950F931F93C3
:10092000CF93DF93DC01FB0155968C915597823074
:1009300081F0833019F1813051F514968D919C919D
:100940001597BC01641B750BAB0141505109BF01E8
:1009500081C014966D917C911597CB018E1B9F0BD6
:10096000FC0116968D919C911797BC01641B750B29
:10097000AB0141505109E21BF30B09C016966D9172
:100980007C9117976E1B7F0B621B730B63C057FD27
:100990001CC116968D919C911797481759070CF01A
:1009A00014C1F7FF04C02E0F3F1FE0E0F0E01496E3
:1009B0008D919C911597BF01620F731F8617970742
:1009C0001CF49C012E1B3F0B121613060CF0FDC0ED
:1009D000CA0157FD079663E0959587956A95E1F7FB
:1009E0009695982F882797958795E80FF91FEC5EC5
:1009F000FE4F4770552781E090E001C0880F4A956F
:100A0000EAF7482F0130110541F088F00230110556
:100A100009F0DBC02E0F3F1F15C02E0F3F1FE2173E
:100A2000F30709F4D2C08081842B8193F8CF80959D
:100A30002E0F3F1FE217F30709F4C7C090819823D8
:100A40009193F8CFE217F30709F4BFC080818427A0
:100A50008193F8CF57FDB9C014968D919C9115974D
:100A6000481759070CF0B1C077FF04C0260F371F95
:100A700060E070E016968D919C911797FB01E20F54
:100A8000F31F8E179F071CF49C01261B370B1216B1
:100A900013060CF09AC0A22F862F86958695869510
:100AA00090E8899F400D511D1124FA01EC5EFE4F24
:100AB0006770A9F198E0961B492F50E0EA01CE5DDE
:100AC000DC4F8881291790F4421B51092FEF30E049
:100AD00002C0359527954A95E2F78223013011052A
:100AE00041F068F00230110589F06FC00130110546
:100AF00019F42081822B0CC00130110520F480955F
:100B00002081822305C00230110531F42081822723
:100B10008083A91708F459C0A91BE058FF4FA830DB
:100B200048F10230110559F4EF018A2F9881909510
:100B30009883C058DF4F88508830C0F731C081E0BB
:100B40000130110509F080E08195EF019A2F88832B
:100B5000C058DF4F98509830D0F788EF8A0F8695AD
:100B60008695869560E8869FE00DF11D1124E0587A
:100B7000FF4FA770AA2349F1B0E0A65EBC4F8C914D
:100B80000130110529F038F002301105D9F01DC0EF
:100B90009081892B03C0809590818923808315C023
:100BA00088EF8A0F86958695869570E8879FE00D79
:100BB000F11D1124E058FF4FA77039F0B0E0A65E98
:100BC000BC4F8C9190818927E9CFDF91CF911F9104
:100BD0000F910895FC0177FD9AC080859185681773
:100BE00079070CF094C057FD92C082859385481711
:100BF00059070CF08CC08589823009F07CC0848153
:100C00009581DC01A61BB70BBD016150710986817E
:100C10009781FC01E41BF50BAF01415051090AC05B
:100C2000813041F484819581841B950BAB01BC011B
:100C3000615071092130310529F008F12230310568
:100C4000E1F10895FA0157FD3796A3E0F595E79590
:100C5000AA95E1F7F695FE2FEE27F795E7956E0F2B
:100C60007F1FFB01EC5EFE4F4770552781E090E04F
:100C700001C0880F4A95EAF79081892B3AC0FA01A2
:100C800057FD379623E0F595E7952A95E1F7F69518
:100C9000FE2FEE27F795E7956E0F7F1FFB01EC5EA9
:100CA000FE4F4770552781E090E001C0880F4A95BC
:100CB000EAF78095908189231CC0FA0157FD379689
:100CC00083E0F595E7958A95E1F7F695FE2FEE27F7
:100CD000F795E7956E0F7F1FFB01EC5EFE4F4770A7
:100CE000552781E090E001C0880F4A95EAF790818E
:100CF000892780830895833009F092CF8681978178
:100D0000861B970BBA01AC014150510993CF08954E
:100D10000895FC016370658B8481958126813781FC
:100D2000613039F0633029F09187808733872287DB
:100D30000895318720879387828708952F923F9265
:100D40004F925F926F927F928F929F92AF92BF92DB
:100D5000CF92DF92EF92FF920F931F93CF93DF9387
:100D6000CDB7DEB76C970FB6F894DEBF0FBECDBF20
:100D70009C8F8B8F1B012A0118870F83FE82ED82C7
:100D8000CA82DC0158964D915C91599741155105E5
:100D900009F0B2C018968D919C9119976817790740
:100DA0000CF096C11A968D919C911B974816590686
:100DB0000CF08EC1AC2CB12CCB01B6E0CB9E800DDB
:100DC000911D1124181619060CF082C1C50133E0DB
:100DD000880F991F3A95E1F7840D951D181619068D
:100DE0000CF076C1AB8DBC8D57968C91811103C0F0
:100DF000203B08F02F5FAB8DBC8DED91FC911197DE
:100E00000680F781E02DCD012A8F09952A8DB5E066
:100E10002B9F90011124610141011B82F901E2190C
:100E2000F309FA87E9879201285F3F4F3C872B87B8
:100E30003B81353049F0E985FA85E80DF91DE8591F
:100E4000FF4F4491498301C0198232011201598137
:100E500050FF13C0AB8DBC8DED91FC91BA81B130C8
:100E600031F40084F185E02D2F81388519C002848A
:100E7000F385E02DEF80F8841EC0ED81FE812F8187
:100E80003885E217F307F1F0AB8DBC8DED91FC9145
:100E9000BA81B13059F40084F185E02D2D813E8175
:100EA000A301B4018B8D9C8D09950CC00284F38540
:100EB000E02DED80FE8085019501A101B6018B8DAD
:100EC0009C8D0995E981E695E983FFEF6F1A7F0A0A
:100ED0002A0C3B1C2B853C856216730609F0B7CFA4
:100EE0003B813F5F3B834FEF841A940ACA0CDB1CA3
:100EF000363009F09DCFCAC0FA01349694913297EA
:100F000065917491291BCB01B7E02B9F800D911D3A
:100F10001124FA01259134913A8B298BFC016590BB
:100F20007490FC01329634913D83319644914B8705
:100F30003296C490319614915A81523058F08C2CCC
:100F40000C2C000C9908812F012E000C990B9C830E
:100F50008B8304C01C821B82812C912CAB8DBC8D99
:100F6000ED91FC9111970680F781E02DCD01099557
:100F7000BA81AB2EB12C8A9CC0018B9C900D9A9C9F
:100F8000900D1124FC01E20DF31DF88BEF871982FF
:100F9000912C812CEC2DCC0CFF0B91012E0F3F1FBF
:100FA0003A87298761013D81C30ED11CA6014E0FEE
:100FB0005F1F5F8B4E8BC201810F911D17FD9A95AC
:100FC000998F888F5B85851608F060C0882D90E02A
:100FD0004B815C81480F591F4A9D90014B9D300DFC
:100FE0005A9D300D1124D901A40DB51DBE87AD87C2
:100FF000C984DA842F843888B981E985BE1BBB8B0C
:10100000288D398D280F391F3D8B2C8B8B898C0DAA
:101010002E893F89C216D30699F1877041F4C30126
:101020000196E989FA89E60DF71D94903C0197FE37
:1010300020C0AB8DBC8DED91FC91BA81B13061F4D3
:101040000084F185E02D2F8138854C895D89B601BA
:101050008B8D9C8D09950DC00284F385E02DEF806A
:10106000F884850195014D855E85B1018B8D9C8D40
:101070000995990CEFEFCE1ADE0A2A0C3B1CC6CF5D
:1010800039814D81340F398383949CCFAB8DBC8DD6
:10109000ED91FC9111970288F389E02DCD016C96BA
:1010A0000FB6F894DEBF0FBECDBFDF91CF911F9179
:1010B0000F91FF90EF90DF90CF90BF90AF909F90F7
:1010C0008F907F906F905F904F903F902F900994FA
:1010D0006C960FB6F894DEBF0FBECDBFDF91CF91F7
:1010E0001F910F91FF90EF90DF90CF90BF90AF9046
:1010F0009F908F907F906F905F904F903F902F9038
:101100000895AF92BF92CF92EF92FF920F931F93E9
:10111000CF93DF93EC01262F888D998D009709F0EE
:1011200042C06A3069F42C898E859F8538E0239F00
:10113000800D911D11249F878E871D861C86ACC053
:101140006D3009F4A9C08E898823C1F03C898C8553
:101150009D8546E0349F800D911D11244885598559
:10116000841795075CF01D861C868E859F85E8E0B8
:101170003E9F800D911D11249F878E87EA88FB88F2
:10118000088919894E855F856C857D85CC88CE015F
:101190000E949E062C898C859D85F6E02F9F800DF0
:1011A000911D112441C06A3079F41D861C862C895A
:1011B000FC013696E4918E859F852E9F800D911DB2
:1011C00011249F878E8768C06D3009F465C0AC011B
:1011D0004C5F5F4FFA013491631708F45DC031969C
:1011E000E491E61708F458C0FA014491362F341BF5
:1011F000FC013296A590B490F7E03F9FA00CB11C83
:101200001124F501329634913196E491332311F093
:10121000E1110DC0F5013496E4912C898C859D85F2
:10122000E29F800D911D11249D878C8735C0F501AB
:10123000359644915E89552311F16C89E32FF0E0D6
:10124000E40FF11D47FDFA956E9FD0016F9FB00D21
:1012500011244C855D854A0F5B1FE885F9854E1783
:101260005F076CF01D861C86FC013696E4918E8526
:101270009F856E9F800D911D11249F878E87EA8820
:10128000FB88088919894E855F856C857D85CC88AA
:10129000CE010E949E06BECF81E090E0DF91CF910B
:1012A0001F910F91FF90EF90CF90BF90AF90089556
:1012B0006F927F928F929F92AF92BF92CF92DF9266
:1012C000EF92FF920F931F93CF93DF93EC014B01AB
:1012D0005A0169013801E881F9810680F781E02D22
:1012E0000995E881F9810684F785E02D870196014B
:1012F000A501B401CE010995E881F981A501460D4A
:10130000571D415051090684F785E02D9601B4011F
:10131000CE010995E881F9810484F585E02D9301DA
:10132000A501B401CE010995E881F981C80CD91C49
:10133000B601615071090484F585E02D9301A50182
:10134000CE010995E881F9810288F389E02DCE016B
:10135000DF91CF911F910F91FF90EF90DF90CF9091
:10136000BF90AF909F908F907F906F900994CF9295
:10137000DF92EF92FF920F931F93CF93DF9300D0F2
:1013800000D000D0CDB7DEB76C01DC01ED91FC914F
:101390006217730789F4041715072CF4942F852F0F
:1013A000A801092F182F041B150B98012F5F3F4F21
:1013B000008CF18DE02D12C04017510709F526175A
:1013C00037072CF4962F872FB901292F382F261B8A
:1013D000370B2F5F3F4F028CF38DE02D8701C60145
:1013E000099526960FB6F894DEBF0FBECDBFDF91EC
:1013F000CF911F910F91FF90EF90DF90CF900895C4
:101400000680F781E02D2D833E834B835C836983C7
:101410007A830995D601ED91FC910088F189E02D40
:101420002D813E814B815C8169817A81C60109955C
:10143000D601ED91FC910288F389E02DC601269634
:101440000FB6F894DEBF0FBECDBFDF91CF911F91D5
:101450000F91FF90EF90DF90CF900994EF92FF9261
:101460000F931F93DC01ED91FC9111971A960D914A
:101470001C911B9718962D913C911997048CF58D12
:10148000E02D7B0140E050E060E070E009951F91A5
:101490000F91FF90EF9008954F925F926F927F921D
:1014A0008F929F92AF92BF92CF92DF92EF92FF9274
:1014B0000F931F93CF93DF9300D0CDB7DEB76C01AE
:1014C0005A0139014801DC01ED91FC910680F78158
:1014D000E02D69837A8309956981462E7A81572E9A
:1014E000640C751CD601ED91FC91461457046CF404
:1014F0000484F585E02D87019401A501B201C601A0
:101500000995BFEF4B1A5B0AEDCF0288F389E02DF6
:10151000C6010F900F90DF91CF911F910F91FF9017
:10152000EF90DF90CF90BF90AF909F908F907F9083
:101530006F905F904F900994AF92BF92CF92DF92DD
:10154000EF92FF920F931F93CF93DF9300D000D0C1
:10155000CDB7DEB75C016901DC01ED91FC9106803D
:10156000F781E02D4B835C8369837A830995D501EC
:10157000ED91FC9169817A819B012C0D3D1D2150DB
:1015800031090088F189E02D78014B815C818A0165
:10159000C5010995D501ED91FC910288F389E02DF3
:1015A000C5010F900F900F900F90DF91CF911F9179
:1015B0000F91FF90EF90DF90CF90BF90AF90099484
:1015C000AF92BF92CF92DF92EF92FF920F931F9351
:1015D000CF93DF9300D000D0CDB7DEB75C016901B7
:1015E000DC01ED91FC910680F781E02D4B835C835B
:1015F00069837A830995D501ED91FC914B815C81DA
:10160000C40ED51EB1E0CB1AD1080088F189E02DB7
:101610007801860169817A819B01C5010995D5010F
:10162000ED91FC910288F389E02DC5010F900F9098
:101630000F900F90DF91CF911F910F91FF90EF903E
:10164000DF90CF90BF90AF9009940895EF92FF92F2
:101650000F931F93DC01ED91FC91048CF58DE02D2F
:1016600009951F910F91FF90EF9008950F931F938D
:10167000DC01ED91FC91028CF38DE02D09951F9119
:101680000F9108950F931F93DC01ED91FC91008C55
:10169000F18DE02D09951F910F910895DC01ED91D9
:1016A000FC910480F581E02D099408952F923F92DA
:1016B0004F925F926F927F928F929F92AF92BF9262
:1016C000CF92DF92EF92FF920F931F93CF93DF930E
:1016D00000D01F92CDB7DEB74C017B836A836A01CD
:1016E000590117019801241B350B37FF03C03195B1
:1016F00021953109C5014A815B81841B950B97FFB8
:1017000003C091958195910951E059838217930700
:1017100014F019820BC09A2D8B2D5801092F182F08
:101720009A818B81DB82CA82C92ED82E8A819B81C5
:10173000A816B9065CF49C2D8D2D6801092F182F71
:101740009A818B81BB82AA82A92EB82E2501AA81FB
:10175000BB814A1A5B0A38016C187D0877FE03C00A
:10176000719461947108720157FE03C0BFEFEB1AC8
:10177000FB0AF594E794C016D1061CF00FEF1FEF9B
:101780001FC001E010E01CC0D401ED91FC91B981B3
:101790000084F185E02D9101BB23C1F04A815B817A
:1017A000B601C4010995E618F708F7FE04C0C00E9B
:1017B000D11EE40CF51CEA81FB813196FB83EA83A0
:1017C0004A815B81A416B506FCF604C0A6016A81B5
:1017D0007B81E7CF0F900F900F90DF91CF911F91FA
:1017E0000F91FF90EF90DF90CF90BF90AF909F90C0
:1017F0008F907F906F905F904F903F902F900895C3
:1018000085ED8093BC008091BC0084FDFCCF1092DC
:10181000290408954091C003262F30E0240F311D84
:1018200021323105DCF4209129042430C9F4FC0173
:1018300080E090E0861758F43091C0032191DC01DC
:10184000A256BC4FA30FB11D2C930196F3CF8091EC
:10185000C003680F6093C00380E0089581E008959D
:1018600082E00895089581E090E03091F2032091A4
:10187000F103321710F480E090E091958195910981
:1018800008958091F2039091F103891730F48F5FEE
:101890008093F20380E090E008958FEF9FEF08952A
:1018A0008091F10390E02091F203821B9109089549
:1018B000CF92DF92EF92FF920F931F93CF93DF931C
:1018C0007C01262F972F8A0180912A04882391F08A
:1018D000C62FD72F6E01C40ED51ECC15DD0571F0B5
:1018E0006991D701ED91FC910190F081E02DC70144
:1018F0000995F3CF642F822F0E940A0CC801DF9153
:10190000CF911F910F91FF90EF90DF90CF900895AE
:10191000CF93DF931F92CDB7DEB7698320912A045E
:101920002223D1F020914C04203240F021E030E01D
:10193000FC013383228380E090E015C080912B046A
:10194000E82FF0E0E45DFB4F998190838F5F8093F7
:101950002B0480934C0405C061E0CE0101960E94E7
:101960000A0C81E090E00F90DF91CF9108950895E7
:101970000E94EB1E90E0FC01E859FA4F3491FC0103
:10198000EA57FA4F2491FC01EC55FA4FE491EE230B
:1019900009F43BC0332339F1333091F038F431305E
:1019A000A9F0323001F584B58F7D12C0373091F047
:1019B0003830A1F03430B9F4809180008F7D03C0BD
:1019C000809180008F77809380000DC084B58F77E1
:1019D00084BD09C08091B0008F7703C08091B000B2
:1019E0008F7D8093B000F0E0EE0FFF1FE656FA4FB8
:1019F000A591B4918FB7F894EC91611103C0209533
:101A00002E2301C02E2B2C938FBF0895CF93DF93ED
:101A100090E0FC01EA57FA4F2491FC01EC55FA4F93
:101A20008491882361F190E0880F991FFC01E458AC
:101A3000FA4FC591D491FC01E656FA4FA591B491A5
:101A4000611109C09FB7F89488812095822388830B
:101A5000EC912E230BC0623061F49FB7F89438816B
:101A6000822F809583238883EC912E2B2C939FBF0C
:101A700006C08FB7F894E8812E2B28838FBFDF91A3
:101A8000CF9108953FB7F8948091EA039091EB03CA
:101A9000A091EC03B091ED0326B5A89B05C02F3FA4
:101AA00019F00196A11DB11D3FBFBA2FA92F982F84
:101AB0008827820F911DA11DB11DBC01CD0142E0FF
:101AC000660F771F881F991F4A95D1F708958F9247
:101AD0009F92AF92BF92CF92DF92EF92FF926B01F3
:101AE0007C010E94420D4B015C01C114D104E10450
:101AF000F104F1F00E94420DDC01CB018819990933
:101B0000AA09BB09883E9340A105B10570F321E005
:101B1000C21AD108E108F10888EE880E83E0981E09
:101B2000A11CB11CC114D104E104F10419F7DDCFEB
:101B3000FF90EF90DF90CF90BF90AF909F908F90ED
:101B400008952FB7F8946091E6037091E7038091B0
:101B5000E8039091E9032FBF08950F931F93CF934C
:101B6000DF930E94A10D20919C0330919D03245D81
:101B70003E4F8901330F220B330B06171707280737
:101B80003907C8F50E94A10D70939D0360939C03D3
:101B90008091F6039091F70301968330910529F027
:101BA0009093F7038093F60304C01092F70310920A
:101BB000F60300E010E08091F6039091F7038017A0
:101BC0009107CCF0C0E0D0E020E04FEF60E0CE0124
:101BD0000E94E6100E942C116AE070E080E090E024
:101BE0000E94670D0E942C112196CB31D10561F71F
:101BF0000F5F1F4FE0CFDF91CF911F910F9108959D
:101C00001F920F920FB60F9211242F933F938F9331
:101C10009F93AF93BF938091E6039091E703A091C8
:101C2000E803B091E9033091E50323E0230F2D375A
:101C300020F40196A11DB11D05C026E8230F0296D0
:101C4000A11DB11D2093E5038093E6039093E70364
:101C5000A093E803B093E9038091EA039091EB032A
:101C6000A091EC03B091ED030196A11DB11D8093ED
:101C7000EA039093EB03A093EC03B093ED03BF91C1
:101C8000AF919F918F913F912F910F900FBE0F9029
:101C90001F9018951F920F920FB60F9211242F9339
:101CA0003F934F935F936F937F938F939F93AF93E4
:101CB000BF93EF93FF93E0910C01F0910D01099513
:101CC000FF91EF91BF91AF919F918F917F916F9114
:101CD0005F914F913F912F910F900FBE0F901F90EA
:101CE00018951F920F920FB60F9211242F933F93C6
:101CF0004F935F936F937F938F939F93AF93BF9314
:101D0000EF93FF93E0910A01F0910B010995FF9188
:101D1000EF91BF91AF919F918F917F916F915F9163
:101D20004F913F912F910F900FBE0F901F901895DC
:101D30001F920F920FB60F9211242F933F934F9340
:101D40005F936F937F938F939F93AF93BF93EF9323
:101D5000FF938091B900887F803609F49CC068F5B4
:101D6000883209F45BC090F4803109F454C038F42F
:101D7000882309F4F6C0883009F44DC0F6C08831D4
:101D800009F44CC0803209F45DC0EFC0803409F41E
:101D900068C048F4803309F455C0883309F0E5C0C1
:101DA00080932704D8C0803509F44FC0883509F4E2
:101DB0005DC0883409F0D9C0D6C0883909F4C7C0DD
:101DC000A8F4883709F467C038F4883609F463C08A
:101DD000803709F460C0C9C0883809F4B8C08039B8
:101DE00009F45FC0803809F0C0C05BC0803B09F4D3
:101DF00086C038F4803A09F466C0883A09F47FC096
:101E0000B4C0803C09F4A7C0883C09F4A4C0883B56
:101E100009F48AC0AAC08091040410C090912604DD
:101E200080912504981770F5E091260481E08E0FCB
:101E300080932604F0E0EB5FFB4F80818093BB0032
:101E400085EC86C0809327048EC0E091260481E053
:101E50008E0F809326048091BB00F0E0EB5FFB4F78
:101E6000808390912604809125046EC0E091260421
:101E700081E08E0F809326048091BB00F0E0EB5F41
:101E8000FB4F80838091280481116DC081E0809395
:101E9000030484EA61C083E0809329041092E40380
:101EA000CFCF8091E403803208F051C0E091E40389
:101EB00081E08E0F8093E4038091BB00F0E0EC534F
:101EC000FC4F8083BDCF85EC8093BC001092290429
:101ED0008091E403803230F4E091E403F0E0EC53CD
:101EE000FC4F10826091E40370E0E091C203F09136
:101EF000C30384EC93E009951092E40336C084E0B8
:101F0000809329041092C1031092C003E091BE0394
:101F1000F091BF0309958091C003811105C081E054
:101F20008093C00310929E03E091C10381E08E0F65
:101F30008093C103F0E0E256FC4F80818093BB00A8
:101F40009091C1038091C003981708F479CF85E878
:101F50008093BC000AC085EC8093BC0010922904D9
:101F600004C0109227040E94000CFF91EF91BF91D2
:101F7000AF919F918F917F916F915F914F913F9121
:101F80002F910F900FBE0F901F9018951F920F92D8
:101F90000FB60F9211242F933F934F935F936F933C
:101FA0007F938F939F93AF93BF93CF93EF93FF93C1
:101FB00096B1C091F403C9238091EF038927C82308
:101FC0009093EF03C0FF05C0E0910E01F0910F0167
:101FD0000995C1FF05C0E0910001F091010109954B
:101FE000C2FF05C0E0910201F09103010995C3FF12
:101FF00005C0E0910401F09105010995C4FF05C0F9
:10200000E0910601F09107010995C5FF05C0E09137
:102010000801F09109010995FF91EF91CF91BF91CE
:10202000AF919F918F917F916F915F914F913F9170
:102030002F910F900FBE0F901F9018950F931F9325
:10204000853578F4682F660F860F282F209590E04D
:10205000A0E0B0E0DC0199278827BC01CD01722BFC
:102060001FC08A3A70F48555682F660F680F262FB7
:102070002095862F90E0A0E0B0E0BC01CD01822B3E
:102080000FC08A5A982F990F890F682F6095462F95
:1020900050E060E070E08A019B01182BC901B80193
:1020A0001F910F91089520914C0490919C0421322E
:1020B00008F04AC0809129048111FCCF32E03093AE
:1020C000290431E0309328043FEF30932704109225
:1020D000260420932504ACE2B4E045E054E0FA0184
:1020E0003E2F341B321718F43D913193F9CF1092E3
:1020F000040420910404990F922B9093040490916E
:102100000304913061F410920304909104049093BD
:10211000BB009091BC0093FDF8CF95EC01C095EE0B
:102120009093BC00909129049230E1F390912704A0
:102130009F3F79F080912704803241F080912704FD
:10214000803331F084E005C081E003C082E001C04B
:1021500083E010922B0410924C0410922A040895EC
:1021600090918F04992339F08EBD00000DB407FEC5
:10217000FDCF8EB5089528E030E040E8E09192046C
:10218000F0919304508190919904909595239083B8
:10219000E0919004F091910490919804542F582369
:1021A00019F05081952B03C0508190959523908311
:1021B000E0919204F0919304508190919904952BB1
:1021C0009083469521503109C9F60895E0915B044A
:1021D000F0915C048E179F07F0F530916004332373
:1021E00061F0639FB0011124672F439FA001112468
:1021F000452F239F90011124232F30916604509185
:102200006304E0916104F0916204351308C0DC01BD
:10221000AA0FBB1F8A0F9B1F8E0F9F1F0AC0880F1C
:10222000991F880F991F8E0F9F1FFC01E30FF11D4F
:10223000108230916304FC01E30FF11D6083309143
:102240006404FC01E30FF11D408330916504FC013F
:10225000E30FF11D208308950F931F93CF93DF9316
:10226000CDB7DEB729970FB6F894DEBF0FBECDBF4E
:102270008091610490916204892B09F4A1C00E94AD
:10228000420D009167041091680420916904309117
:102290006A04DC01CB01801B910BA20BB30BC2972C
:1022A000A105B10560F3F89480915D0490915E04FE
:1022B0009A838983E0916104F0916204DF011196B1
:1022C0008081898790915904E0916B04F0916C04AE
:1022D00080916D04992309F42EC09081982B9887E2
:1022E0009081809589238F838F818C8388E08B8375
:1022F00058856F8149853B812C8189819A815083E2
:1023000047FD252F3A952083262F39F0441F00C022
:1023100000006083000000C0F2CF38E04D91608380
:102320000000019761F7F0936C04E0936B04498718
:102330003B832C8338C09081982B9887908180951F
:1023400089238F838F818E8388E08D8358856F8169
:1023500049853D812E8189819A81508347FD252FB2
:1023600000C000C0208300C000C000C000C000C08A
:1023700060830000262F3A9541F0441F000000C002
:1023800000C000C000C000C0E8CF38E04D9100C0E0
:10239000608300C0019709F7F0936C04E0936B042D
:1023A00049873D832E839A83898378940E94420DC6
:1023B00060936704709368048093690490936A043F
:1023C00029960FB6F894DEBF0FBECDBFDF91CF9137
:1023D0001F910F910895CF93C82F80918A048F3F4A
:1023E00059F1E0919404F0919504808190919A04C0
:1023F000982B9083E0919604F0919704208190911E
:102400009B04909592239083E0919404F09195041D
:10241000208190919A049095922390838C2F0E9412
:10242000B010E0919404F0919504908180919A0409
:10243000892B8083CF9108958091880491E09093B7
:102440002A0480939C0410922B0410924C0460E0A8
:102450008DE494E00E94880C6C2F8DE494E00E943F
:10246000880CCF910C945310EF92FF920F931F930F
:10247000CF93DF9381E20E94EB1180E00E94EB1189
:102480008FE70E94EB1182E20E94EB1180E00E9434
:10249000EB1183E00E94EB1180918A048F3F79F168
:1024A000E0919404F0919504908180919A04892B95
:1024B0008083E0919604F0919704908180919B0431
:1024C000892B8083E0919404F09195049081809110
:1024D0009A04809589238083C4E1D1E089910E9488
:1024E000B01083E0C431D807C9F7E0919404F091AB
:1024F0009504908180919A04892B808330C0F0905C
:10250000B8008CE08093B800C4E1D1E0EE24E394FD
:1025100080918804E0922A0480939C0410922B04FA
:1025200010924C0460E48DE494E00E94880C00E07A
:1025300010E0FE01E00FF11F60818DE494E00E9445
:10254000880C0F5F1F4F0031110599F70E9453103F
:10255000609683E0C431D807D9F6F092B800DF91D5
:10256000CF911F910F91FF90EF900895009769F020
:10257000FC0101900020E9F73197AF01481B590B8E
:10258000BC018EE694E00C94080380E090E008958E
:102590008F929F92AF92BF920F931F93CF93DF932F
:1025A000CDB7DEB7A1970FB6F894DEBF0FBECDBF93
:1025B00019A2423008F44AE08E010F5D1F4F842EAD
:1025C000912CA12CB12CA50194010E943B1BE62F5C
:1025D000B901CA0101501109EA3014F4E05D01C0EB
:1025E000E95CD801EC93232B242B252B61F7C80140
:1025F0000E94B612A1960FB6F894DEBF0FBECDBFF3
:10260000DF91CF911F910F91BF90AF909F908F90CE
:10261000089580E092E0E4E1F1E0DF019C011D9289
:1026200021503040E1F708958F929F92AF92BF9270
:10263000CF92DF92EF92FF924B01AA24BB24E82DA8
:10264000C52ED62EE72EFF24FC2D342F20916004BA
:10265000222361F0829E40011124E92DC29E600177
:102660001124FD2D429FD00111243B2FF0906604D0
:10267000E0906304A0916104B0916204FE1008C070
:10268000AC01440F551F840F951F8A0F9B1F14C068
:10269000880F991F880F991F8A0F9B1F472F552757
:1026A00066277727DC01AF0DB11D222321F0429F61
:1026B000A0011124452F4C9320916304DC01A20F4B
:1026C000B11DEC9320916404DC01A20FB11DFC93B9
:1026D00020916504FC01E20FF11D3083FF90EF9023
:1026E000DF90CF90BF90AF909F908F900895809192
:1026F000610490916204009711F00E94531E809132
:102700005F0487FD03C060E00C94060D0895CF932D
:10271000DF93CDB7DEB7A8970FB6F894DEBF0FBE34
:10272000CDBF789484B5826084BD84B5816084BD5A
:1027300085B5826085BD85B5816085BD80916E005F
:10274000816080936E001092810080918100826090
:1027500080938100809181008160809381008091CD
:1027600080008160809380008091B10084608093BC
:10277000B1008091B00081608093B00080917A00B8
:10278000846080937A0080917A00826080937A00DE
:1027900080917A00816080937A0080917A008068CD
:1027A00080937A001092C1001AB88FEF8BB90DEAAE
:1027B0001DE010930D0100930C01809169008C6065
:1027C00080936900E99A60E08EE00E94060D109304
:1027D0000F0100930E018091F40381608093F40354
:1027E00086B18093EF0380916C00816080936C00D0
:1027F000809168008260809368000E94A10D6093C0
:10280000FF0370930004809301049093020480916D
:102810005F0487FD08C061E00E94060D60E08091C2
:102820005F040E94BA0C11E010935A040E942C110C
:1028300061E082E00E94BA0C82E0809389048CE31C
:102840008093880480918A048F3F09F4BDC061E0C1
:1028500080918C040E94060D61E080918E040E949C
:10286000060D80918E04082E000C990BFC01EC558E
:10287000FA4FE491F0E0EE0FFF1FE656FA4F259174
:1028800034913093950420939404FC01EA57FA4F55
:10289000E491E0939A0480918C04082E000C990B2B
:1028A000FC01EC55FA4FE491F0E0EE0FFF1FE65605
:1028B000FA4F259134913093970420939604FC01AC
:1028C000EA57FA4FE491E0939B0480918F048111C1
:1028D0003EC061E080918A040E94060D61E0809113
:1028E0008B040E94060D80918B04082E000C990B1E
:1028F000FC01EC55FA4FE491F0E0EE0FFF1FE656B5
:10290000FA4F259134913093930420939204FC0163
:10291000EA57FA4FE491E093990480918A04082ED3
:10292000000C990BFC01EC55FA4FE491F0E0EE0F2E
:10293000FF1FE656FA4F259134913093910420936E
:102940009004FC01EA57FA4FE491E09398048091D7
:102950008F04882309F45EC01FB7F8948091F803B0
:10296000811127C0EEEAF5E08491E0E9F5E0949169
:10297000E82FF0E0EE0FFF1FE458FA4FA591B49155
:10298000EC91E92321F461E08AE00E94BA0C61E055
:102990008AE00E94060D8CB580618CBD8CB5806488
:1029A0008CBD61E08DE00E94060D61E08BE00E942D
:1029B000060D8091F8038F5F8093F8031FBF80E5B9
:1029C0008CBD81E08DBD26C01092F2031092F10300
:1029D00010922B0410924C04109229041093280496
:1029E0001092030461E082E10E94BA0C61E083E18D
:1029F0000E94BA0C8091B9008E7F8093B9008091BB
:102A0000B9008D7F8093B90088E48093B80085E495
:102A10008093BC0080918D0487FD1EC061E00E9400
:102A2000060D61E080918D040E94BA0C61E070E0B7
:102A300080E090E00E94670D60E080918D040E942C
:102A4000BA0C6AE070E080E090E00E94670D61E0FF
:102A500080918D040E94BA0C8EEA0E94EB1185EDE4
:102A60000E94EB1180E80E94EB1188EA0E94EB11B2
:102A70008FE10E94EB1183ED0E94EB1180E00E9438
:102A8000EB1180E40E94EB118DE80E94EB1184E1D0
:102A90000E94EB1180E20E94EB1180E00E94EB119A
:102AA00081EA0E94EB1188EC0E94EB118AED0E94F2
:102AB000EB1182E00E94EB1181E80E94EB118FE89C
:102AC0000E94EB1189ED0E94EB1181EF0E94EB1146
:102AD0008BED0E94EB1180E40E94EB1184EA0E94CE
:102AE000EB1186EA0E94EB118EE20E94EB118FEA55
:102AF0000E94EB110E940913A12CB12CC090760406
:102B0000D09077042091780430917904C216D306CE
:102B100024F4C601D7FE04C002C0C90137FD0196E6
:102B200095958795A816B9060CF03FC037FF02C0EF
:102B30002F5F3F4F3595279549018A0C9B1CD7FE87
:102B400003C04FEFC41AD40AD594C79426014A0C87
:102B50005B1C36016A187B0819012A183B08EE2411
:102B6000E394F12C84019301A101B6018EE694E077
:102B70000E94B7099201A401B3018EE694E00E947D
:102B8000B70981019601A401B2018EE694E00E948A
:102B9000B7090E94341261E070E080E090E00E948A
:102BA000670D55E0A50EB11CA9CF60ED77E080E080
:102BB00090E00E94670D0E94091380917604909125
:102BC0007704E0907804F09079048E159F053CF42A
:102BD0007C0197FF09C06FEFE61AF60A05C0F7FE01
:102BE00003C07FEFE71AF70AF594E7941E141F0459
:102BF0000CF097C1809178049091790497FD01962B
:102C0000959587956C01CE0CDF1C609176047091D0
:102C1000770477FF02C06F5F7F4F759567959B01C3
:102C20001B012E0C3F1CDB01AE19BF09B8A7AFA3D7
:102C3000FC01EE19FF09FC83EB83CE16DF0624F4BA
:102C4000CE16DF06A9F50BC08B819C818C159D05E6
:102C500009F025C4B1012FA038A42FA338A72FA1B4
:102C600038A5221633065CF09FA188A522153305EE
:102C700014F4922D832D2FA038A49FA388A762154A
:102C8000730544F04FA158A54617570714F478A7C9
:102C90006FA3B1012FA138A5261B370B2F5F3F4F24
:102CA00001E010E0A6018EE694E00E94360B2DC1F3
:102CB00091016FA178A5261B370B8B819C818C1904
:102CC0009D099E838D83AA27BB27AE19BF09BA87AA
:102CD000A9879A8B898B4601B1E08B1A9108DE8A0D
:102CE000CD8A80E090E0ED89FE89FA83E983412C6A
:102CF000512C32011D861E861F86188AAC01990F41
:102D0000660B770B4F8B588F698F7A8F6D817E8121
:102D1000072E000C880B990B6B8F7C8F8D8F9E8FED
:102D2000C901330FAA0BBB0B8F8F98A3A9A3BAA31A
:102D300097010F2C000C440B550B2BA33CA34DA368
:102D40005EA3A981BA818A169B060CF44DC06D85DD
:102D50007E858F8598892F89388D498D5A8D0E945F
:102D60005D1BAFA0B8A4A20EB31EC301B2012B8D90
:102D70003C8D4D8D5E8D0E945D1B6FA178A5260F49
:102D8000371F8D859E85AF85B8894F8D58A169A164
:102D90007AA1840F951FA61FB71F8D879E87AF87C7
:102DA000B88B6BA17CA18DA19EA1460E571E681EFB
:102DB000791E2A153B052CF49A2D8B2D5901292FAC
:102DC000382F2A193B092F5F3F4F01E010E049815E
:102DD0005A81B5018EE694E00E94360B89819A8172
:102DE00001969A838983ADCFCD018C199D09E98520
:102DF000FA85E89F4001E99F900CF89F900C112400
:102E0000092C000CAA08BB08CD012D893E89821B24
:102E1000930BE89E2001E99E500CF89E500C112463
:102E2000052C000C6608770849895A89052E000C84
:102E3000660B770B498B5A8B6B8B7C8B6D817E81FC
:102E4000072E000C880B990B6D837E838F839887E8
:102E5000CF01092E000CAA0BBB0B89879A87AB8781
:102E6000BC8797010F2C000C440B550B2D873E8718
:102E70004F87588B89819A81AB81BC81A817B9078C
:102E80000CF443C0C501B40129893A894B895C8996
:102E90000E945D1B6101C20ED31EC301B2012D81D0
:102EA0003E814F8158850E945D1B6FA178A5260F3A
:102EB000371F89859A85AB85BC85880E991EAA1E09
:102EC000BB1E4D855E856F857889440E551E661E36
:102ED000771E2C153D052CF49C2D8D2D6901292F75
:102EE000382F2C193D092F5F3F4F01E010E0498139
:102EF0005A81B6018EE694E00E94360B69817A8190
:102F00006F5F7F4F7A836983B5CF0E94341261E08F
:102F100070E080E090E00E94670DB5E0EB1AF108E8
:102F200065CE60ED77E080E090E00E94670D81E083
:102F30008093820481E090E09093810480938004E8
:102F400090937F0480937E0480E190E090937B04D3
:102F500080937A040CE010E010937D0400937C04CD
:102F600082E693E00E94B61280E690E090937B04A4
:102F700080937A0410937D0400937C0487E693E0A9
:102F80000E94B6120E94341260ED77E080E090E07B
:102F90000E94670D40E1642E712C01E010E0212CAD
:102FA000312C58EC452E52E4552E8091F603909129
:102FB000F703009709F051C00E940913E2E0E09383
:102FC0008204109381040093800410937F04009383
:102FD0007E0410927B0410927A0470927D046092B9
:102FE0007C048DE693E00E94B6120E943412C12C3C
:102FF000D12C812C99249394EE24E394F12CA0906D
:103000005B04B0905C04AE14BF04B8F0C401B50119
:103010000E94271B862F8C0D0E941E10AB01BC0145
:10302000C5018E199F098A159B0510F40E9414137F
:10303000FFEFEF1AFF0A9394E2CF0E942C1161E098
:1030400070E080E090E00E94670D3FEFC31AD30A62
:10305000C11445E0D40669F61AC28130910509F021
:103060009BC11A82198229ED47E863E289819A811E
:103070000E94E61029ED47E863E289819A810A9669
:103080000E94E61029ED47E863E289819A8144961F
:103090000E94E61029ED47E863E289819A810A9748
:1030A0000E94E61029ED47E863E289819A814497FE
:1030B0000E94E61020E040E060E089819A81039759
:1030C0000E94E61020E040E060E089819A8141960C
:1030D0000E94E61020E040E060E089819A814B96F2
:1030E0000E94E61020E040E060E089819A810D971F
:1030F0000E94E61020E040E060E089819A814797D5
:103100000E94E6100E942C110E94A10DC090FF03A6
:10311000D0900004E0900104F090020458EEC50E37
:1031200053E0D51EE11CF11CC616D706E806F906C9
:1031300008F01DC189B190E09093FE038093FD03D8
:103140006091FD037091FE03660F771F80E090E0B1
:103150000E94951C23E738E641E95DE30E944C1D7F
:103160004B015C016093F9037093FA038093FB03B6
:103170009093FC038091FD039091FE03892BB9F09D
:10318000A501940166EA7BE984EC9BE30E94F41BB1
:1031900020E030E04AE754E40E944C1D60931001A7
:1031A00070931101809312019093130108C0209233
:1031B00010013092110140921201509213010E94AD
:1031C00009138EE20E94EB1162E060938204109377
:1031D00081040093800410937F0400937E0484E0B4
:1031E00090E090937B0480937A0470927D046092C7
:1031F0007C04A5019401C501B4010E94B91D882376
:1032000019F085E793E01AC075016401E894F7F8B6
:103210002FEF3FEF4FE75FE7C701B6010E94B91DEF
:1032200081110FC02FEF3FEF4FE75FE7C701B601F6
:103230000E94EF1B18162CF489E793E00E94B61247
:1032400082C02FEF3FEF4FE75FE4C501B4010E945A
:10325000471D18161CF48DE793E0F0CF2FEF3FEFDA
:103260004FE75FECC501B4010E94EF1B87FDF3CF70
:1032700020E030E0A901C501B4010E94EF1B87FFE7
:103280000FC0E0916E04F0916F040190F081E02D89
:103290006DE28EE694E00995B7FAB094B7F8B09471
:1032A0002AE037ED43EA5BE3C501B4010E94831BCA
:1032B0006B017C010E94661C4B015C010E94951C05
:1032C0009B01AC01C701B6010E94821B6B017C010E
:1032D0004AE0C501B4010E94C812E0916E04F09169
:1032E0006F040190F081E02D6EE28EE694E0099586
:1032F00020E030E040E251E4C701B6010E944C1DDD
:103300006B017C010E94661C4B01A12CB12C4AE090
:10331000C501B4010E94C812C501B4010E94951CE8
:103320009B01AC01C701B6010E94821B20E030E086
:1033300040E251E40E944C1D0E94661C80E090E037
:103340004AE00E94C81281E893E00E94B6120E94EF
:1033500034121092FE031092FD030E94A10D60939F
:10336000FF03709300048093010490930204609122
:1033700010017091110180911201909113010E942E
:10338000661C0E94670DA981BA811196BA83A98330
:103390005E9709F068CE7BC0029709F078C00E9462
:1033A0000913B2E0B0938204109381040093800467
:1033B00010937F0400937E0410927B0410927A0491
:1033C00070927D0460927C0485E893E00E94B612BE
:1033D0000E9434120E94091381E0809382041093AA
:1033E00081040093800410937F0400937E04EAE03C
:1033F000F0E0F0937B04E0937A04F0937D04E09393
:103400007C0481E993E00E94B612EE24E394F12C4F
:1034100080915B0490915C048E159F0558F020E02C
:1034200040E060E08E199F090E94E610FFEFEF1A5E
:10343000FF0AEECF0E942C11C12CD12C8C2D0E94A2
:103440001E104B015C01E12CF12C80915B049091EA
:103450005C04E816F90628F4B501A401C7010E942E
:10346000141323E0E20EF11C3BE1E316F10469F7CB
:103470000E942C1164E170E080E090E00E94670DF2
:103480004FEFC41AD40AC11451E0D506B9F660E072
:1034900070E0672B09F489CD0E94000086CD2227B9
:1034A00033272E193F09C601AB81BC818A1B9B0BB8
:1034B0009E838D83F1014FA158A5E41BF50BFA877C
:1034C000E9871A0178A76FA3BE8BAD8BDC82CB8214
:1034D00046011A8A198A07CC1092500410924F04A0
:1034E00088EE93E0A0E0B0E0809351049093520402
:1034F000A0935304B09354048EE293E090934E044F
:1035000080934D04109271041092700420E830E012
:10351000309373042093720480E290E090937504DA
:103520008093740430937704209376049093790405
:10353000809378041092830410927B0410927A0492
:1035400010927D0410927C0481E0809382042FEF1E
:103550003FEF309381042093800430937F042093C5
:103560007E04809384041092850410928704109244
:1035700086042EE333E030936F0420936E049FEFB4
:1035800090938A0490938E0490938C0490938B0470
:1035900094E090938D0410925A041092600410925B
:1035A0006704109268041092690410926A04809370
:1035B0006604809363041092640492E0909365041F
:1035C0008093590481E590E090935E0480935D04BC
:1035D0000E94BE1D9093620480936104009761F085
:1035E00021E5FC0111922A95E9F78BE190E0909397
:1035F0005C0480935B0408C010925E0410925D042A
:1036000010925C0410925B048BE080935F048091C5
:103610005A04882341F061E08BE00E94060D60E0CF
:103620008BE00E94BA0CEFEAF5E0E491F0E0EE0FD7
:10363000FF1FE656FA4F8591949190936C04809306
:103640006B04E1E9F5E0E491E0936D040895AA1BB1
:10365000BB1B51E107C0AA1FBB1FA617B70710F07D
:10366000A61BB70B881F991F5A95A9F780959095AF
:10367000BC01CD010895A1E21A2EAA1BBB1BFD01BE
:103680000DC0AA1FBB1FEE1FFF1FA217B307E40741
:10369000F50720F0A21BB30BE40BF50B661F771F99
:1036A000881F991F1A9469F7609570958095909579
:1036B0009B01AC01BD01CF010895052E97FB1EF4BF
:1036C00000940E94741B57FD07D00E943B1B07FC0F
:1036D00003D04EF40C94741B509540953095219571
:1036E0003F4F4F4F5F4F089590958095709561952E
:1036F0007F4F8F4F9F4F0895EE0FFF1F0590F4915E
:10370000E02D09945058BB27AA270E949A1B0C94BD
:103710000D1D0E94FF1C38F00E94061D20F039F498
:103720009F3F19F426F40C94FC1C0EF4E095E7FB83
:103730000C94F61CE92F0E941E1D58F3BA1762075D
:1037400073078407950720F079F4A6F50C94401DC3
:103750000EF4E0950B2EBA2FA02D0B01B9019001AC
:103760000C01CA01A0011124FF27591B99F0593FF0
:1037700050F4503E68F11A16F040A22F232F342F38
:103780004427585FF3CF469537952795A795F04086
:103790005395C9F77EF41F16BA0B620B730B840B9B
:1037A000BAF09150A1F0FF0FBB1F661F771F881F53
:1037B000C2F70EC0BA0F621F731F841F48F48795AB
:1037C00077956795B795F7959E3F08F0B0CF93959D
:1037D000880F08F09927EE0F9795879508950E9416
:1037E000D21C08F481E008950E94081C0C940D1D61
:1037F0000E94061D58F00E94FF1C40F029F45F3F14
:1038000029F00C94F61C51110C94411D0C94FC1CD5
:103810000E941E1D68F39923B1F3552391F3951B64
:10382000550BBB27AA2762177307840738F09F5FE1
:103830005F4F220F331F441FAA1FA9F335D00E2E4E
:103840003AF0E0E832D091505040E695001CCAF7BB
:103850002BD0FE2F29D0660F771F881FBB1F26177E
:1038600037074807AB07B0E809F0BB0B802DBF0155
:10387000FF2793585F4F3AF09E3F510578F00C9424
:10388000F61C0C94411D5F3FE4F3983ED4F38695FB
:1038900077956795B795F7959F5FC9F7880F911D45
:1038A0009695879597F90895E1E0660F771F881F31
:1038B000BB1F621773078407BA0720F0621B730BE4
:1038C000840BBA0BEE1F88F7E09508950E94261D21
:1038D00088F09F5798F0B92F9927B751B0F0E1F0D1
:1038E000660F771F881F991F1AF0BA95C9F714C081
:1038F000B13091F00E94401DB1E008950C94401D3C
:10390000672F782F8827B85F39F0B93FCCF38695B9
:1039100077956795B395D9F73EF490958095709516
:1039200061957F4F8F4F9F4F0895E89409C097FB93
:103930003EF490958095709561957F4F8F4F9F4F86
:103940009923A9F0F92F96E9BB279395F6958795CA
:1039500077956795B795F111F8CFFAF4BB0F11F48D
:1039600060FF1BC06F5F7F4F8F4F9F4F16C0882334
:1039700011F096E911C0772321F09EE8872F762F6A
:1039800005C0662371F096E8862F70E060E02AF0AB
:103990009A95660F771F881FDAF7880F9695879597
:1039A00097F90895990F0008550FAA0BE0E8FEEF6C
:1039B00016161706E807F907C0F012161306E407F3
:1039C000F50798F0621B730B840B950B39F40A26EC
:1039D00061F0232B242B252B21F408950A2609F4CA
:1039E000A140A6958FEF811D811D089597F99F67CE
:1039F00080E870E060E008959FEF80EC0895002477
:103A00000A941616170618060906089500240A9443
:103A100012161306140605060895092E0394000CC9
:103A200011F4882352F0BB0F40F4BF2B11F460FF58
:103A300004C06F5F7F4F8F4F9F4F089557FD905881
:103A4000440F551F59F05F3F71F04795880F97FB62
:103A5000991F61F09F3F79F087950895121613061C
:103A60001406551FF2CF4695F1DF08C0161617064B
:103A70001806991FF1CF8695710561050894089580
:103A8000E894BB2766277727CB0197F908950E9412
:103A9000D21C08F48FEF08950E945F1D0C940D1D39
:103AA0000E94FF1C38F00E94061D20F0952311F0A3
:103AB0000C94F61C0C94FC1C11240C94411D0E94C7
:103AC0001E1D70F3959FC1F3950F50E0551F629F27
:103AD000F001729FBB27F00DB11D639FAA27F00D67
:103AE000B11DAA1F649F6627B00DA11D661F829F8E
:103AF0002227B00DA11D621F739FB00DA11D621F73
:103B0000839FA00D611D221F749F3327A00D611D8F
:103B1000231F849F600D211D822F762F6A2F112471
:103B20009F5750409AF0F1F088234AF0EE0FFF1FA4
:103B3000BB1F661F771F881F91505040A9F79E3FFB
:103B4000510580F00C94F61C0C94411D5F3FE4F38A
:103B5000983ED4F3869577956795B795F795E79551
:103B60009F5FC1F7FE2B880F911D9695879597F95A
:103B700008950E94D21C880B990B0895CF93DF9370
:103B80008230910510F482E090E0E0919F04F09182
:103B9000A00420E030E0C0E0D0E0309711F1408197
:103BA000518148175907C0F04817590761F48281BD
:103BB0009381209719F09B838A832BC09093A00454
:103BC00080939F0426C02115310519F04217530731
:103BD00018F49A01BE01DF01EF010280F381E02DAC
:103BE000DCCF2115310509F1281B390B24303105B3
:103BF00090F412968D919C9113976115710521F0A7
:103C0000FB019383828304C09093A00480939F045C
:103C1000FD01329644C0FD01E20FF31F81939193A1
:103C2000225031092D933C933AC020919D0430914C
:103C30009E04232B41F420911603309117033093F7
:103C40009E0420939D0420911403309115032115A7
:103C5000310541F42DB73EB7409118035091190337
:103C6000241B350BE0919D04F0919E04E217F307AD
:103C7000A0F42E1B3F0B2817390778F0AC014E5FDC
:103C80005F4F2417350748F04E0F5F1F50939E0477
:103C900040939D048193919302C0E0E0F0E0CF0156
:103CA000DF91CF9108950F931F93CF93DF930097E8
:103CB00009F48CC0FC0132971382128200919F0498
:103CC0001091A0040115110581F420813181820F2A
:103CD000931F20919D0430919E042817390779F590
:103CE000F0939E04E0939D0471C0D80140E050E041
:103CF000AE17BF0750F412962D913C911397AD016A
:103D00002115310509F1D901F3CF9D01DA01338382
:103D1000228360817181860F971F8217930769F450
:103D2000EC0128813981260F371F2E5F3F4F3183E9
:103D300020838A819B8193838283452B29F4F0938E
:103D4000A004E0939F0442C01396FC93EE93129755
:103D5000ED01499159919E01240F351FE217F30798
:103D600071F480819181840F951F029611969C9326
:103D70008E938281938113969C938E931297E0E0A9
:103D8000F0E0D80112968D919C911397009719F04D
:103D9000F8018C01F6CF8D919C9198012E5F3F4FD9
:103DA000820F931F20919D0430919E04281739079C
:103DB00069F4309729F41092A00410929F0402C075
:103DC0001382128210939E0400939D04DF91CF9181
:103DD0001F910F91089581E090E0F8940C94F01EEB
:103DE00012E0CDEDD2E004C0FE010E947C1B2196C2
:0A3DF000CE3DD107C9F7F894FFCFCC
:103DFA00B70CB70CB70CB70CB70C33033303B70CBB
:103E0A00000048420000000000000000000000001E
:103E1A000000000000000000000000000000000098
:103E2A000000000000000000000000000000000088
:103E3A000000000000000000000000000000000078
:103E4A0000000080808000000000000000000000E8
:103E5A0000000000008080C0C000000000000000D8
:103E6A000000000000000000000000000000000048
:103E7A000000000000000000000000000000000038
:103E8A000000000000000000000000000000000028
:103E9A00000000000000000080C0E0F0F8FCF8E03C
:103EAA000000000000000000000000000000000008
:103EBA0000808080808000808000000000808080F8
:103ECA00808000FFFFFF00000000808080800000EB
:103EDA008080000080FFFF808000808000808080DA
:103EEA00800080800000000000808000008C8E84AA
:103EFA00000080F8F8F880000000000000000000D0
:103F0A0000000000F0F0F0F0F0F0F0F0F0F0F0F067
:103F1A00E0E0C08000E0FCFEFFFFFF7FFFFFFFFF45
:103F2A00FF0000000000000000000000000000FE8A
:103F3A00FFC70101010183FFFF00007CFEC70101E9
:103F4A00010183FFFFFF0038FEC78301010183C718
:103F5A00FFFF000001FFFF010100FFFF0701010150
:103F6A0000007FFF80000000FFFF7F0000FFFFFFCF
:103F7A00000001FFFFFF0100000000000000000038
:103F8A0000000000030F3F7F7FFFFFFFFFFFFFFFDF
:103F9A00E7C7C78F8F9FBFFFFFC3C0F0FFFFFFFFB9
:103FAA00FFFCFCFCFCFCFCFCFCF8F8F0F0E0C000B8
:103FBA0001030303030301030300000000010303D9
:103FCA0003030101030100000001030303030101CC
:103FDA0003030000000303000000030300000000C5
:103FEA0000000001030303030301000000010301B1
:103FFA0000000003030100000000000000000000B0
:10400A00000000000000A1048000000103070F1F48
:10401A003F7F0080C0E0F0F8FCFE00000000880C42
:10402A00580C500C410C330C320C00000000810873
:10403A000803EA05550B4E0B260B420B360B560BA3
:10404A00250B8906880634038E044C0A2E0AB70902
:10405A00580957494C4C0052494742590052414964
:10406A004E424F57006E616E00696E66006F76664B
:10407A00006D2F7300534146455459204C4954450D
:0C408A0000426172204772617068000003
:00000001FF
