:100000000C9434000C9446000C9446000C9446006A
:100010000C947E000C9446000C9446000C94460010
:100020000C9446000C9446000C9446000C94460038
:100030000C9446000C9446000C9491000C944600DD
:100040000C9446000C9446000C9446000C94460018
:100050000C9446000C9446000C9446000C94460008
:100060000C9446000C94460011241FBECFEFD8E03C
:10007000DEBFCDBF21E0A0E0B1E001C01D92A33002
:10008000B207E1F70E945D000C94A8000C940000F8
:10009000E8E6F0E0808182608083ECE6F0E0808139
:1000A00081608083089582E084BD93E095BD16BC95
:1000B0009DE797BD80936E0008958FEF84B915B8C2
:1000C00017B881E088B984E08AB90E9448000E948C
:1000D0005300789421E08091000190910101883EC5
:1000E0009340C8F38091020185B9109202011092E9
:1000F0000101109200018BB12BB9EDCF1F920F922D
:100100000FB60F9211248F93309905C08091020190
:100110008F5F809302018F910F900FBE0F901F9001
:1001200018951F920F920FB60F9211248F939F93E1
:1001300080910001909101010196909301018093BB
:1001400000019F918F910F900FBE0F901F901895F7
:04015000F894FFCF51
:00000001FF
